{
  "contractName": "TwitterOracle",
  "abi": [
    {
      "constant": false,
      "inputs": [],
      "name": "unpause",
      "outputs": [],
      "payable": false,
      "stateMutability": "nonpayable",
      "type": "function"
    },
    {
      "constant": true,
      "inputs": [],
      "name": "paused",
      "outputs": [
        {
          "name": "",
          "type": "bool"
        }
      ],
      "payable": false,
      "stateMutability": "view",
      "type": "function"
    },
    {
      "constant": false,
      "inputs": [],
      "name": "destroy",
      "outputs": [],
      "payable": false,
      "stateMutability": "nonpayable",
      "type": "function"
    },
    {
      "constant": false,
      "inputs": [],
      "name": "pause",
      "outputs": [],
      "payable": false,
      "stateMutability": "nonpayable",
      "type": "function"
    },
    {
      "constant": true,
      "inputs": [],
      "name": "owner",
      "outputs": [
        {
          "name": "",
          "type": "address"
        }
      ],
      "payable": false,
      "stateMutability": "view",
      "type": "function"
    },
    {
      "constant": true,
      "inputs": [
        {
          "name": "",
          "type": "bytes32"
        }
      ],
      "name": "tweetTexts",
      "outputs": [
        {
          "name": "",
          "type": "string"
        }
      ],
      "payable": false,
      "stateMutability": "view",
      "type": "function"
    },
    {
      "constant": false,
      "inputs": [
        {
          "name": "newOwner",
          "type": "address"
        }
      ],
      "name": "transferOwnership",
      "outputs": [],
      "payable": false,
      "stateMutability": "nonpayable",
      "type": "function"
    },
    {
      "constant": false,
      "inputs": [
        {
          "name": "_recipient",
          "type": "address"
        }
      ],
      "name": "destroyAndSend",
      "outputs": [],
      "payable": false,
      "stateMutability": "nonpayable",
      "type": "function"
    },
    {
      "inputs": [],
      "payable": true,
      "stateMutability": "payable",
      "type": "constructor"
    },
    {
      "payable": false,
      "stateMutability": "nonpayable",
      "type": "fallback"
    },
    {
      "anonymous": false,
      "inputs": [
        {
          "indexed": false,
          "name": "description",
          "type": "string"
        }
      ],
      "name": "LogInfo",
      "type": "event"
    },
    {
      "anonymous": false,
      "inputs": [
        {
          "indexed": false,
          "name": "text",
          "type": "string"
        }
      ],
      "name": "LogTextUpdate",
      "type": "event"
    },
    {
      "anonymous": false,
      "inputs": [
        {
          "indexed": true,
          "name": "_owner",
          "type": "address"
        },
        {
          "indexed": true,
          "name": "_balance",
          "type": "uint256"
        }
      ],
      "name": "LogUpdate",
      "type": "event"
    },
    {
      "anonymous": false,
      "inputs": [],
      "name": "Pause",
      "type": "event"
    },
    {
      "anonymous": false,
      "inputs": [],
      "name": "Unpause",
      "type": "event"
    },
    {
      "anonymous": false,
      "inputs": [
        {
          "indexed": true,
          "name": "previousOwner",
          "type": "address"
        },
        {
          "indexed": true,
          "name": "newOwner",
          "type": "address"
        }
      ],
      "name": "OwnershipTransferred",
      "type": "event"
    },
    {
      "constant": false,
      "inputs": [
        {
          "name": "myid",
          "type": "bytes32"
        },
        {
          "name": "result",
          "type": "string"
        }
      ],
      "name": "__callback",
      "outputs": [],
      "payable": false,
      "stateMutability": "nonpayable",
      "type": "function"
    },
    {
      "constant": false,
      "inputs": [
        {
          "name": "_id",
          "type": "bytes32"
        },
        {
          "name": "_result",
          "type": "string"
        },
        {
          "name": "_proof",
          "type": "bytes"
        }
      ],
      "name": "__callback",
      "outputs": [],
      "payable": false,
      "stateMutability": "nonpayable",
      "type": "function"
    },
    {
      "constant": true,
      "inputs": [],
      "name": "getBalance",
      "outputs": [
        {
          "name": "_balance",
          "type": "uint256"
        }
      ],
      "payable": false,
      "stateMutability": "view",
      "type": "function"
    },
    {
      "constant": false,
      "inputs": [
        {
          "name": "_postId",
          "type": "string"
        }
      ],
      "name": "oraclizeTweet",
      "outputs": [],
      "payable": true,
      "stateMutability": "payable",
      "type": "function"
    },
    {
      "constant": true,
      "inputs": [
        {
          "name": "_postId",
          "type": "string"
        }
      ],
      "name": "getTweetText",
      "outputs": [
        {
          "name": "",
          "type": "string"
        }
      ],
      "payable": false,
      "stateMutability": "view",
      "type": "function"
    }
  ],
  "bytecode": "0x608060405260008060146101000a81548160ff021916908315150217905550336000806101000a81548173ffffffffffffffffffffffffffffffffffffffff021916908373ffffffffffffffffffffffffffffffffffffffff16021790555033600660006101000a81548173ffffffffffffffffffffffffffffffffffffffff021916908373ffffffffffffffffffffffffffffffffffffffff1602179055503073ffffffffffffffffffffffffffffffffffffffff1631600660009054906101000a900473ffffffffffffffffffffffffffffffffffffffff1673ffffffffffffffffffffffffffffffffffffffff167fd176e7c6abd789c341ab22cef27aa1fbc7461f5f9d6a6e55faa0b9df32a7051460405160405180910390a3736f485c8bf6fc43ea212e93bbf8ce046c7f1cb475600160006101000a81548173ffffffffffffffffffffffffffffffffffffffff021916908373ffffffffffffffffffffffffffffffffffffffff160217905550620001d360017f01000000000000000000000000000000000000000000000000000000000000000260107f01000000000000000000000000000000000000000000000000000000000000000217620001d9640100000000026401000000009004565b62000be8565b6000600160009054906101000a900473ffffffffffffffffffffffffffffffffffffffff1673ffffffffffffffffffffffffffffffffffffffff1614806200025c575060006200025a600160009054906101000a900473ffffffffffffffffffffffffffffffffffffffff1662000591640100000000026401000000009004565b145b156200027f576200027d60006200059c640100000000026401000000009004565b505b600160009054906101000a900473ffffffffffffffffffffffffffffffffffffffff1673ffffffffffffffffffffffffffffffffffffffff166338cc48316040518163ffffffff167c0100000000000000000000000000000000000000000000000000000000028152600401602060405180830381600087803b1580156200030657600080fd5b505af11580156200031b573d6000803e3d6000fd5b505050506040513d60208110156200033257600080fd5b810190808051906020019092919050505073ffffffffffffffffffffffffffffffffffffffff16600260009054906101000a900473ffffffffffffffffffffffffffffffffffffffff1673ffffffffffffffffffffffffffffffffffffffff161415156200049f57600160009054906101000a900473ffffffffffffffffffffffffffffffffffffffff1673ffffffffffffffffffffffffffffffffffffffff166338cc48316040518163ffffffff167c0100000000000000000000000000000000000000000000000000000000028152600401602060405180830381600087803b1580156200042157600080fd5b505af115801562000436573d6000803e3d6000fd5b505050506040513d60208110156200044d57600080fd5b8101908080519060200190929190505050600260006101000a81548173ffffffffffffffffffffffffffffffffffffffff021916908373ffffffffffffffffffffffffffffffffffffffff1602179055505b600260009054906101000a900473ffffffffffffffffffffffffffffffffffffffff1673ffffffffffffffffffffffffffffffffffffffff1663688dcfd7826040518263ffffffff167c010000000000000000000000000000000000000000000000000000000002815260040180827effffffffffffffffffffffffffffffffffffffffffffffffffffffffffffff19167effffffffffffffffffffffffffffffffffffffffffffffffffffffffffffff19168152602001915050600060405180830381600087803b1580156200057557600080fd5b505af11580156200058a573d6000803e3d6000fd5b5050505050565b6000813b9050919050565b6000620005b7620005be640100000000026401000000009004565b9050919050565b600080620005ef731d3b2638a7cc9f2cb3d298a3da7a90b67e5506ed62000591640100000000026401000000009004565b1115620006a457731d3b2638a7cc9f2cb3d298a3da7a90b67e5506ed600160006101000a81548173ffffffffffffffffffffffffffffffffffffffff021916908373ffffffffffffffffffffffffffffffffffffffff1602179055506200069a6040805190810160405280600b81526020017f6574685f6d61696e6e657400000000000000000000000000000000000000000081525062000b1d640100000000026401000000009004565b6001905062000b1a565b6000620006d473c03a2615d5efaf5f49f60b7bb6583eaec212fdf162000591640100000000026401000000009004565b1115620007895773c03a2615d5efaf5f49f60b7bb6583eaec212fdf1600160006101000a81548173ffffffffffffffffffffffffffffffffffffffff021916908373ffffffffffffffffffffffffffffffffffffffff1602179055506200077f6040805190810160405280600c81526020017f6574685f726f707374656e33000000000000000000000000000000000000000081525062000b1d640100000000026401000000009004565b6001905062000b1a565b6000620007b973b7a07bcf2ba2f2703b24c0691b5278999c59ac7e62000591640100000000026401000000009004565b11156200086e5773b7a07bcf2ba2f2703b24c0691b5278999c59ac7e600160006101000a81548173ffffffffffffffffffffffffffffffffffffffff021916908373ffffffffffffffffffffffffffffffffffffffff160217905550620008646040805190810160405280600981526020017f6574685f6b6f76616e000000000000000000000000000000000000000000000081525062000b1d640100000000026401000000009004565b6001905062000b1a565b60006200089e73146500cfd35b22e4a392fe0adc06de1a1368ed4862000591640100000000026401000000009004565b1115620009535773146500cfd35b22e4a392fe0adc06de1a1368ed48600160006101000a81548173ffffffffffffffffffffffffffffffffffffffff021916908373ffffffffffffffffffffffffffffffffffffffff160217905550620009496040805190810160405280600b81526020017f6574685f72696e6b65627900000000000000000000000000000000000000000081525062000b1d640100000000026401000000009004565b6001905062000b1a565b600062000983736f485c8bf6fc43ea212e93bbf8ce046c7f1cb47562000591640100000000026401000000009004565b1115620009e957736f485c8bf6fc43ea212e93bbf8ce046c7f1cb475600160006101000a81548173ffffffffffffffffffffffffffffffffffffffff021916908373ffffffffffffffffffffffffffffffffffffffff1602179055506001905062000b1a565b600062000a197320e12a1f859b3feae5fb2a0a32c18f5a65555bbf62000591640100000000026401000000009004565b111562000a7f577320e12a1f859b3feae5fb2a0a32c18f5a65555bbf600160006101000a81548173ffffffffffffffffffffffffffffffffffffffff021916908373ffffffffffffffffffffffffffffffffffffffff1602179055506001905062000b1a565b600062000aaf7351efaf4c8b3c9afbd5ab9f4bbc82784ab6ef8faa62000591640100000000026401000000009004565b111562000b15577351efaf4c8b3c9afbd5ab9f4bbc82784ab6ef8faa600160006101000a81548173ffffffffffffffffffffffffffffffffffffffff021916908373ffffffffffffffffffffffffffffffffffffffff1602179055506001905062000b1a565b600090505b90565b806003908051906020019062000b3592919062000b39565b5050565b828054600181600116156101000203166002900490600052602060002090601f016020900481019282601f1062000b7c57805160ff191683800117855562000bad565b8280016001018555821562000bad579182015b8281111562000bac57825182559160200191906001019062000b8f565b5b50905062000bbc919062000bc0565b5090565b62000be591905b8082111562000be157600081600090555060010162000bc7565b5090565b90565b6126ea8062000bf86000396000f3006080604052600436106100c5576000357c0100000000000000000000000000000000000000000000000000000000900463ffffffff16806312065fe01461014057806327dc297e1461016b57806338bbfa50146101e25780633f4ba83a1461029f5780635c975abb146102b657806383197ef0146102e55780638456cb59146102fc5780638da5cb5b14610313578063aafe8a1a1461036a578063cf2e291414610414578063f2fde38b146104f6578063f5074f4114610539578063fae571ca1461057c575b3480156100d157600080fd5b506040517f08c379a000000000000000000000000000000000000000000000000000000000815260040180806020018281038252601f8152602001807f46616c6c6261636b2066756e6374696f6e2e20526576657274696e672e2e2e0081525060200191505060405180910390fd5b34801561014c57600080fd5b506101556105d8565b6040518082815260200191505060405180910390f35b34801561017757600080fd5b506101e06004803603810190808035600019169060200190929190803590602001908201803590602001908080601f01602080910402602001604051908101604052809392919081815260200183838082843782019150505050505091929192905050506105f7565b005b3480156101ee57600080fd5b5061029d6004803603810190808035600019169060200190929190803590602001908201803590602001908080601f0160208091040260200160405190810160405280939291908181526020018383808284378201915050505050509192919290803590602001908201803590602001908080601f016020809104026020016040519081016040528093929190818152602001838380828437820191505050505050919291929050505061063a565b005b3480156102ab57600080fd5b506102b4610a8c565b005b3480156102c257600080fd5b506102cb610b4a565b604051808215151515815260200191505060405180910390f35b3480156102f157600080fd5b506102fa610b5d565b005b34801561030857600080fd5b50610311610bf2565b005b34801561031f57600080fd5b50610328610cb2565b604051808273ffffffffffffffffffffffffffffffffffffffff1673ffffffffffffffffffffffffffffffffffffffff16815260200191505060405180910390f35b34801561037657600080fd5b506103996004803603810190808035600019169060200190929190505050610cd8565b6040518080602001828103825283818151815260200191508051906020019080838360005b838110156103d95780820151818401526020810190506103be565b50505050905090810190601f1680156104065780820380516001836020036101000a031916815260200191505b509250505060405180910390f35b34801561042057600080fd5b5061047b600480360381019080803590602001908201803590602001908080601f0160208091040260200160405190810160405280939291908181526020018383808284378201915050505050509192919290505050610d88565b6040518080602001828103825283818151815260200191508051906020019080838360005b838110156104bb5780820151818401526020810190506104a0565b50505050905090810190601f1680156104e85780820380516001836020036101000a031916815260200191505b509250505060405180910390f35b34801561050257600080fd5b50610537600480360381019080803573ffffffffffffffffffffffffffffffffffffffff169060200190929190505050610f19565b005b34801561054557600080fd5b5061057a600480360381019080803573ffffffffffffffffffffffffffffffffffffffff16906020019092919050505061106e565b005b6105d6600480360381019080803590602001908201803590602001908080601f01602080910402602001604051908101604052809392919081815260200183838082843782019150505050505091929192905050506110e2565b005b60003073ffffffffffffffffffffffffffffffffffffffff1631905090565b610636828260006040519080825280601f01601f1916602001820160405280156106305781602001602082028038833980820191505090505b5061063a565b5050565b60008060149054906101000a900460ff1615151561065757600080fd5b61065f61144c565b73ffffffffffffffffffffffffffffffffffffffff163373ffffffffffffffffffffffffffffffffffffffff1614151561074d576040517f08c379a00000000000000000000000000000000000000000000000000000000081526004018080602001828103825260498152602001807f5468652063616c6c6572206f6620746869732066756e6374696f6e206973206e81526020017f6f7420746865206f66666963616c204f7261636c697a652043616c6c6261636b81526020017f20416464726573732e000000000000000000000000000000000000000000000081525060600191505060405180910390fd5b6108096008600086600019166000191681526020019081526020016000208054600181600116156101000203166002900480601f0160208091040260200160405190810160405280929190818152602001828054600181600116156101000203166002900480156107ff5780601f106107d4576101008083540402835291602001916107ff565b820191906000526020600020905b8154815290600101906020018083116107e257829003601f168201915b50505050506117ae565b15156108c9576040517f08c379a00000000000000000000000000000000000000000000000000000000081526004018080602001828103825260518152602001807f546865204f7261636c697a6520717565727920494420646f6573206e6f74206d81526020017f6174636820616e204f7261636c697a652072657175657374206d61646520667281526020017f6f6d207468697320636f6e74726163742e00000000000000000000000000000081525060600191505060405180910390fd5b60086000856000191660001916815260200190815260200160002060405160200180828054600181600116156101000203166002900480156109425780601f10610920576101008083540402835291820191610942565b820191906000526020600020905b81548152906001019060200180831161092e575b50509150506040516020818303038152906040526040518082805190602001908083835b60208310151561098b5780518252602082019150602081019050602083039250610966565b6001836020036101000a038019825116818451168082178552505050505050905001915050604051809103902090508260076000836000191660001916815260200190815260200160002090805190602001906109e9929190612619565b507fc0bf91854366db107ab987d2b1251910a349342c304fbb5b900a1ea5ef359af8836040518080602001828103825283818151815260200191508051906020019080838360005b83811015610a4c578082015181840152602081019050610a31565b50505050905090810190601f168015610a795780820380516001836020036101000a031916815260200191505b509250505060405180910390a150505050565b6000809054906101000a900473ffffffffffffffffffffffffffffffffffffffff1673ffffffffffffffffffffffffffffffffffffffff163373ffffffffffffffffffffffffffffffffffffffff16141515610ae757600080fd5b600060149054906101000a900460ff161515610b0257600080fd5b60008060146101000a81548160ff0219169083151502179055507f7805862f689e2f13df9f062ff482ad3ad112aca9e0847911ed832e158c525b3360405160405180910390a1565b600060149054906101000a900460ff1681565b6000809054906101000a900473ffffffffffffffffffffffffffffffffffffffff1673ffffffffffffffffffffffffffffffffffffffff163373ffffffffffffffffffffffffffffffffffffffff16141515610bb857600080fd5b6000809054906101000a900473ffffffffffffffffffffffffffffffffffffffff1673ffffffffffffffffffffffffffffffffffffffff16ff5b6000809054906101000a900473ffffffffffffffffffffffffffffffffffffffff1673ffffffffffffffffffffffffffffffffffffffff163373ffffffffffffffffffffffffffffffffffffffff16141515610c4d57600080fd5b600060149054906101000a900460ff16151515610c6957600080fd5b6001600060146101000a81548160ff0219169083151502179055507f6985a02210a168e66602d3235cb6db0e70f92b3ba4d376a33c0f3d9434bff62560405160405180910390a1565b600660009054906101000a900473ffffffffffffffffffffffffffffffffffffffff1681565b60076020528060005260406000206000915090508054600181600116156101000203166002900480601f016020809104026020016040519081016040528092919081815260200182805460018160011615610100020316600290048015610d805780601f10610d5557610100808354040283529160200191610d80565b820191906000526020600020905b815481529060010190602001808311610d6357829003601f168201915b505050505081565b60606000826040516020018082805190602001908083835b602083101515610dc55780518252602082019150602081019050602083039250610da0565b6001836020036101000a0380198251168184511680821785525050505050509050019150506040516020818303038152906040526040518082805190602001908083835b602083101515610e2e5780518252602082019150602081019050602083039250610e09565b6001836020036101000a038019825116818451168082178552505050505050905001915050604051809103902090506007600082600019166000191681526020019081526020016000208054600181600116156101000203166002900480601f016020809104026020016040519081016040528092919081815260200182805460018160011615610100020316600290048015610f0c5780601f10610ee157610100808354040283529160200191610f0c565b820191906000526020600020905b815481529060010190602001808311610eef57829003601f168201915b5050505050915050919050565b6000809054906101000a900473ffffffffffffffffffffffffffffffffffffffff1673ffffffffffffffffffffffffffffffffffffffff163373ffffffffffffffffffffffffffffffffffffffff16141515610f7457600080fd5b600073ffffffffffffffffffffffffffffffffffffffff168173ffffffffffffffffffffffffffffffffffffffff1614151515610fb057600080fd5b8073ffffffffffffffffffffffffffffffffffffffff166000809054906101000a900473ffffffffffffffffffffffffffffffffffffffff1673ffffffffffffffffffffffffffffffffffffffff167f8be0079c531659141344cd1fd0a4f28419497f9722a3daafe3b4186f6b6457e060405160405180910390a3806000806101000a81548173ffffffffffffffffffffffffffffffffffffffff021916908373ffffffffffffffffffffffffffffffffffffffff16021790555050565b6000809054906101000a900473ffffffffffffffffffffffffffffffffffffffff1673ffffffffffffffffffffffffffffffffffffffff163373ffffffffffffffffffffffffffffffffffffffff161415156110c957600080fd5b8073ffffffffffffffffffffffffffffffffffffffff16ff5b606060008060149054906101000a900460ff1615151561110157600080fd5b3073ffffffffffffffffffffffffffffffffffffffff16316111576040805190810160405280600381526020017f55524c00000000000000000000000000000000000000000000000000000000008152506117d3565b1115611216577ffee95ecae0c8f7f0743ec0ad254c78ab75e5ecca9f1ddcd9f11f9a98124b96bc60405180806020018281038252604b8152602001807f4f7261636c697a6520717565727920776173204e4f542073656e742c20706c6581526020017f6173652061646420736f6d652045544820746f20636f76657220666f7220746881526020017f652071756572792066656500000000000000000000000000000000000000000081525060600191505060405180910390a1611447565b7ffee95ecae0c8f7f0743ec0ad254c78ab75e5ecca9f1ddcd9f11f9a98124b96bc6040518080602001828103825260358152602001807f4f7261636c697a65207175657279207761732073656e742c207374616e64696e81526020017f6720627920666f722074686520616e737765722e2e000000000000000000000081525060400191505060405180910390a18260405160200180807f68746d6c2868747470733a2f2f747769747465722e636f6d2f0000000000000081525060190182805190602001908083835b60208310151561130557805182526020820191506020810190506020830392506112e0565b6001836020036101000a038019825116818451168082178552505050505050905001807f292e7870617468282f2f6469765b636f6e7461696e732840636c6173732c202781526020017f7065726d616c696e6b2d74776565742d636f6e7461696e657227295d2f2f705b81526020017f636f6e7461696e732840636c6173732c202774776565742d7465787427295d2f81526020017f2f7465787428292900000000000000000000000000000000000000000000000081525060680191505060405160208183030381529060405291506114146040805190810160405280600381526020017f55524c000000000000000000000000000000000000000000000000000000000081525083611ba7565b9050826008600083600019166000191681526020019081526020016000209080519060200190611445929190612619565b505b505050565b600080600160009054906101000a900473ffffffffffffffffffffffffffffffffffffffff1673ffffffffffffffffffffffffffffffffffffffff1614806114be575060006114bc600160009054906101000a900473ffffffffffffffffffffffffffffffffffffffff1661214d565b145b156114cf576114cd6000612158565b505b600160009054906101000a900473ffffffffffffffffffffffffffffffffffffffff1673ffffffffffffffffffffffffffffffffffffffff166338cc48316040518163ffffffff167c0100000000000000000000000000000000000000000000000000000000028152600401602060405180830381600087803b15801561155557600080fd5b505af1158015611569573d6000803e3d6000fd5b505050506040513d602081101561157f57600080fd5b810190808051906020019092919050505073ffffffffffffffffffffffffffffffffffffffff16600260009054906101000a900473ffffffffffffffffffffffffffffffffffffffff1673ffffffffffffffffffffffffffffffffffffffff161415156116e857600160009054906101000a900473ffffffffffffffffffffffffffffffffffffffff1673ffffffffffffffffffffffffffffffffffffffff166338cc48316040518163ffffffff167c0100000000000000000000000000000000000000000000000000000000028152600401602060405180830381600087803b15801561166c57600080fd5b505af1158015611680573d6000803e3d6000fd5b505050506040513d602081101561169657600080fd5b8101908080519060200190929190505050600260006101000a81548173ffffffffffffffffffffffffffffffffffffffff021916908373ffffffffffffffffffffffffffffffffffffffff1602179055505b600260009054906101000a900473ffffffffffffffffffffffffffffffffffffffff1673ffffffffffffffffffffffffffffffffffffffff1663c281d19e6040518163ffffffff167c0100000000000000000000000000000000000000000000000000000000028152600401602060405180830381600087803b15801561176e57600080fd5b505af1158015611782573d6000803e3d6000fd5b505050506040513d602081101561179857600080fd5b8101908080519060200190929190505050905090565b600060608290506000815114156117c857600091506117cd565b600191505b50919050565b600080600160009054906101000a900473ffffffffffffffffffffffffffffffffffffffff1673ffffffffffffffffffffffffffffffffffffffff16148061184557506000611843600160009054906101000a900473ffffffffffffffffffffffffffffffffffffffff1661214d565b145b15611856576118546000612158565b505b600160009054906101000a900473ffffffffffffffffffffffffffffffffffffffff1673ffffffffffffffffffffffffffffffffffffffff166338cc48316040518163ffffffff167c0100000000000000000000000000000000000000000000000000000000028152600401602060405180830381600087803b1580156118dc57600080fd5b505af11580156118f0573d6000803e3d6000fd5b505050506040513d602081101561190657600080fd5b810190808051906020019092919050505073ffffffffffffffffffffffffffffffffffffffff16600260009054906101000a900473ffffffffffffffffffffffffffffffffffffffff1673ffffffffffffffffffffffffffffffffffffffff16141515611a6f57600160009054906101000a900473ffffffffffffffffffffffffffffffffffffffff1673ffffffffffffffffffffffffffffffffffffffff166338cc48316040518163ffffffff167c0100000000000000000000000000000000000000000000000000000000028152600401602060405180830381600087803b1580156119f357600080fd5b505af1158015611a07573d6000803e3d6000fd5b505050506040513d6020811015611a1d57600080fd5b8101908080519060200190929190505050600260006101000a81548173ffffffffffffffffffffffffffffffffffffffff021916908373ffffffffffffffffffffffffffffffffffffffff1602179055505b600260009054906101000a900473ffffffffffffffffffffffffffffffffffffffff1673ffffffffffffffffffffffffffffffffffffffff1663524f3889836040518263ffffffff167c01000000000000000000000000000000000000000000000000000000000281526004018080602001828103825283818151815260200191508051906020019080838360005b83811015611b19578082015181840152602081019050611afe565b50505050905090810190601f168015611b465780820380516001836020036101000a031916815260200191505b5092505050602060405180830381600087803b158015611b6557600080fd5b505af1158015611b79573d6000803e3d6000fd5b505050506040513d6020811015611b8f57600080fd5b81019080805190602001909291905050509050919050565b6000806000600160009054906101000a900473ffffffffffffffffffffffffffffffffffffffff1673ffffffffffffffffffffffffffffffffffffffff161480611c1b57506000611c19600160009054906101000a900473ffffffffffffffffffffffffffffffffffffffff1661214d565b145b15611c2c57611c2a6000612158565b505b600160009054906101000a900473ffffffffffffffffffffffffffffffffffffffff1673ffffffffffffffffffffffffffffffffffffffff166338cc48316040518163ffffffff167c0100000000000000000000000000000000000000000000000000000000028152600401602060405180830381600087803b158015611cb257600080fd5b505af1158015611cc6573d6000803e3d6000fd5b505050506040513d6020811015611cdc57600080fd5b810190808051906020019092919050505073ffffffffffffffffffffffffffffffffffffffff16600260009054906101000a900473ffffffffffffffffffffffffffffffffffffffff1673ffffffffffffffffffffffffffffffffffffffff16141515611e4557600160009054906101000a900473ffffffffffffffffffffffffffffffffffffffff1673ffffffffffffffffffffffffffffffffffffffff166338cc48316040518163ffffffff167c0100000000000000000000000000000000000000000000000000000000028152600401602060405180830381600087803b158015611dc957600080fd5b505af1158015611ddd573d6000803e3d6000fd5b505050506040513d6020811015611df357600080fd5b8101908080519060200190929190505050600260006101000a81548173ffffffffffffffffffffffffffffffffffffffff021916908373ffffffffffffffffffffffffffffffffffffffff1602179055505b600260009054906101000a900473ffffffffffffffffffffffffffffffffffffffff1673ffffffffffffffffffffffffffffffffffffffff1663524f3889856040518263ffffffff167c01000000000000000000000000000000000000000000000000000000000281526004018080602001828103825283818151815260200191508051906020019080838360005b83811015611eef578082015181840152602081019050611ed4565b50505050905090810190601f168015611f1c5780820380516001836020036101000a031916815260200191505b5092505050602060405180830381600087803b158015611f3b57600080fd5b505af1158015611f4f573d6000803e3d6000fd5b505050506040513d6020811015611f6557600080fd5b8101908080519060200190929190505050905062030d403a02670de0b6b3a764000001811115611f9b5760006001029150612146565b600260009054906101000a900473ffffffffffffffffffffffffffffffffffffffff1673ffffffffffffffffffffffffffffffffffffffff1663adf59f9982600087876040518563ffffffff167c0100000000000000000000000000000000000000000000000000000000028152600401808481526020018060200180602001838103835285818151815260200191508051906020019080838360005b83811015612053578082015181840152602081019050612038565b50505050905090810190601f1680156120805780820380516001836020036101000a031916815260200191505b50838103825284818151815260200191508051906020019080838360005b838110156120b957808201518184015260208101905061209e565b50505050905090810190601f1680156120e65780820380516001836020036101000a031916815260200191505b50955050505050506020604051808303818588803b15801561210757600080fd5b505af115801561211b573d6000803e3d6000fd5b50505050506040513d602081101561213257600080fd5b810190808051906020019092919050505091505b5092915050565b6000813b9050919050565b6000612162612169565b9050919050565b600080612189731d3b2638a7cc9f2cb3d298a3da7a90b67e5506ed61214d565b111561222b57731d3b2638a7cc9f2cb3d298a3da7a90b67e5506ed600160006101000a81548173ffffffffffffffffffffffffffffffffffffffff021916908373ffffffffffffffffffffffffffffffffffffffff1602179055506122226040805190810160405280600b81526020017f6574685f6d61696e6e65740000000000000000000000000000000000000000008152506125ff565b600190506125fc565b600061224a73c03a2615d5efaf5f49f60b7bb6583eaec212fdf161214d565b11156122ec5773c03a2615d5efaf5f49f60b7bb6583eaec212fdf1600160006101000a81548173ffffffffffffffffffffffffffffffffffffffff021916908373ffffffffffffffffffffffffffffffffffffffff1602179055506122e36040805190810160405280600c81526020017f6574685f726f707374656e3300000000000000000000000000000000000000008152506125ff565b600190506125fc565b600061230b73b7a07bcf2ba2f2703b24c0691b5278999c59ac7e61214d565b11156123ad5773b7a07bcf2ba2f2703b24c0691b5278999c59ac7e600160006101000a81548173ffffffffffffffffffffffffffffffffffffffff021916908373ffffffffffffffffffffffffffffffffffffffff1602179055506123a46040805190810160405280600981526020017f6574685f6b6f76616e00000000000000000000000000000000000000000000008152506125ff565b600190506125fc565b60006123cc73146500cfd35b22e4a392fe0adc06de1a1368ed4861214d565b111561246e5773146500cfd35b22e4a392fe0adc06de1a1368ed48600160006101000a81548173ffffffffffffffffffffffffffffffffffffffff021916908373ffffffffffffffffffffffffffffffffffffffff1602179055506124656040805190810160405280600b81526020017f6574685f72696e6b6562790000000000000000000000000000000000000000008152506125ff565b600190506125fc565b600061248d736f485c8bf6fc43ea212e93bbf8ce046c7f1cb47561214d565b11156124f157736f485c8bf6fc43ea212e93bbf8ce046c7f1cb475600160006101000a81548173ffffffffffffffffffffffffffffffffffffffff021916908373ffffffffffffffffffffffffffffffffffffffff160217905550600190506125fc565b60006125107320e12a1f859b3feae5fb2a0a32c18f5a65555bbf61214d565b1115612574577320e12a1f859b3feae5fb2a0a32c18f5a65555bbf600160006101000a81548173ffffffffffffffffffffffffffffffffffffffff021916908373ffffffffffffffffffffffffffffffffffffffff160217905550600190506125fc565b60006125937351efaf4c8b3c9afbd5ab9f4bbc82784ab6ef8faa61214d565b11156125f7577351efaf4c8b3c9afbd5ab9f4bbc82784ab6ef8faa600160006101000a81548173ffffffffffffffffffffffffffffffffffffffff021916908373ffffffffffffffffffffffffffffffffffffffff160217905550600190506125fc565b600090505b90565b8060039080519060200190612615929190612619565b5050565b828054600181600116156101000203166002900490600052602060002090601f016020900481019282601f1061265a57805160ff1916838001178555612688565b82800160010185558215612688579182015b8281111561268757825182559160200191906001019061266c565b5b5090506126959190612699565b5090565b6126bb91905b808211156126b757600081600090555060010161269f565b5090565b905600a165627a7a72305820cd0c0c223710cd0675e575cb6ebf97ff59ee15fbdf756640ba7f3dc44c8bc24a0029",
  "source": "pragma solidity 0.4.24;\r\n\r\nimport \"installed_contracts/oraclize-api/contracts/usingOraclize.sol\";\r\nimport \"installed_contracts/zeppelin/contracts/ownership/Ownable.sol\";\r\nimport \"installed_contracts/zeppelin/contracts/lifecycle/Pausable.sol\";\r\nimport \"installed_contracts/zeppelin/contracts/lifecycle/Destructible.sol\";\r\n\r\n/// @title The Twitter Oracle contract which allows users to retrieve and store twitter posts\r\n/// @author Shawn Tabrizi\r\n/// @notice This contract uses Oraclize to retrieve post text from Twitter, and store it in this contract\r\ncontract TwitterOracle is Ownable, Pausable, Destructible, usingOraclize {\r\n    /* Storage */\r\n    address public owner;\r\n    mapping(bytes32 => string) public tweetTexts;\r\n    mapping(bytes32 => string) internal queryToPost;\r\n\r\n    /* Events */\r\n    event LogInfo(string description);\r\n    event LogTextUpdate(string text);\r\n    event LogUpdate(address indexed _owner, uint indexed _balance);\r\n\r\n    /* Functions */\r\n    /// @notice The constuctor function for this contract, establishing the owner of the oracle, the intial balance of the contract, and the Oraclize Resolver address\r\n    /// @dev Owner management can be done through Open-Zeppelin's Ownable.sol, this contract needs ETH to function and should be initialized with funds\r\n    constructor()\r\n    payable\r\n    public\r\n    {\r\n        owner = msg.sender;\r\n\r\n        emit LogUpdate(owner, address(this).balance);\r\n\r\n        // Replace the next line with your version:\r\n        OAR = OraclizeAddrResolverI(0x6f485C8BF6fc43eA212E93BBF8ce046C7f1cb475);\r\n\r\n        oraclize_setProof(proofType_TLSNotary | proofStorage_IPFS);\r\n    }\r\n\r\n    /// @notice The fallback function for the contract\r\n    /// @dev Will simply revert any unexpected calls\r\n    function()\r\n    public\r\n    {\r\n        revert(\"Fallback function. Reverting...\");\r\n    }\r\n\r\n    /// @notice An internal function which checks that a particular string is not empty\r\n    /// @dev To be used in the Oraclize callback function to make sure the resulting text is not null\r\n    /// @param _s The string to check if empty/null\r\n    /// @return Returns false if the string is empty, and true otherwise\r\n    function stringNotEmpty(string _s)\r\n    internal\r\n    pure\r\n    returns(bool)\r\n    {\r\n        bytes memory tempString = bytes(_s);\r\n        if (tempString.length == 0) {\r\n            return false;\r\n        } else {\r\n            return true;\r\n        }\r\n    }\r\n\r\n    /// @notice The callback function that Oraclize calls when returning a result\r\n    /// @dev Will store the text of a Twitter post into this contract's storage\r\n    /// @param _id The query ID generated when calling oraclize_query\r\n    /// @param _result The result from Oraclize, should be the Twitter post text\r\n    /// @param _proof The authenticity proof returned by Oraclize, not currently being used in this contract, but it can be upgraded to do so\r\n    function __callback(bytes32 _id, string _result, bytes _proof)\r\n    public\r\n    whenNotPaused\r\n    {\r\n        require(\r\n            msg.sender == oraclize_cbAddress(),\r\n            \"The caller of this function is not the offical Oraclize Callback Address.\"\r\n            );\r\n        require(\r\n            stringNotEmpty(queryToPost[_id]),\r\n            \"The Oraclize query ID does not match an Oraclize request made from this contract.\"\r\n            );\r\n\r\n        bytes32 postHash = keccak256(abi.encodePacked(queryToPost[_id]));\r\n        tweetTexts[postHash] = _result;\r\n\r\n        emit LogTextUpdate(_result);\r\n    }\r\n\r\n    /// @notice Returns the balance of this contract\r\n    /// @dev This contract needs ether to be able to interact with the oracle\r\n    /// @return Returns the ether balance of this contract\r\n    function getBalance()\r\n    public\r\n    view\r\n    returns (uint _balance)\r\n    {\r\n        return address(this).balance;\r\n    }\r\n\r\n    /// @notice This function iniates the oraclize process for a Twitter post\r\n    /// @dev This contract needs ether to be able to call the oracle, which is why this function is also payable\r\n    /// @param _postId The twitter post to fetch with the oracle. Expecting \"<user>/status/<id>\"\r\n    function oraclizeTweet(string _postId)\r\n    public\r\n    payable\r\n    whenNotPaused\r\n    {\r\n        // Check if we have enough remaining funds\r\n        if (oraclize_getPrice(\"URL\") > address(this).balance) {\r\n            emit LogInfo(\"Oraclize query was NOT sent, please add some ETH to cover for the query fee\");\r\n        } else {\r\n            emit LogInfo(\"Oraclize query was sent, standing by for the answer..\");\r\n            // Using XPath to to fetch the right element in the JSON response\r\n            string memory query = string(abi.encodePacked(\"html(https://twitter.com/\", _postId, \").xpath(//div[contains(@class, 'permalink-tweet-container')]//p[contains(@class, 'tweet-text')]//text())\"));\r\n\r\n            bytes32 queryId = oraclize_query(\"URL\", query);\r\n            queryToPost[queryId] = _postId;\r\n        }\r\n    }\r\n\r\n    /// @notice This function returns the text of a specific Twitter post stored in this contract\r\n    /// @dev This function will return an empty string in the situation where the Twitter post has not been stored yet\r\n    /// @param _postId The twitter post to get the text of. Expeting \"<user>/status/<id>\"\r\n    /// @return Returns the text of the twitter post, or an empty string in the case where the post has not been stored yet\r\n    function getTweetText(string _postId)\r\n    public\r\n    view\r\n    returns(string)\r\n    {\r\n        bytes32 postHash = keccak256(abi.encodePacked(_postId));\r\n        return tweetTexts[postHash];\r\n    }\r\n\r\n}",
  "sourcePath": "C:\\Users\\shawn\\Documents\\GitHub\\Ethereum-Twitter-Bounty\\twitter-bounty\\contracts\\TwitterOracle.sol",
  "compiler": {
    "name": "solc",
    "version": "0.4.24+commit.e67f0147.Emscripten.clang"
  },
  "schemaVersion": "2.0.1",
  "updatedAt": "2018-08-19T01:27:36.864Z"
}