{
  "contractName": "TwitterBounty",
  "abi": [
    {
      "constant": false,
      "inputs": [],
      "name": "unpause",
      "outputs": [],
      "payable": false,
      "stateMutability": "nonpayable",
      "type": "function"
    },
    {
      "constant": true,
      "inputs": [],
      "name": "paused",
      "outputs": [
        {
          "name": "",
          "type": "bool"
        }
      ],
      "payable": false,
      "stateMutability": "view",
      "type": "function"
    },
    {
      "constant": false,
      "inputs": [],
      "name": "destroy",
      "outputs": [],
      "payable": false,
      "stateMutability": "nonpayable",
      "type": "function"
    },
    {
      "constant": false,
      "inputs": [],
      "name": "pause",
      "outputs": [],
      "payable": false,
      "stateMutability": "nonpayable",
      "type": "function"
    },
    {
      "constant": true,
      "inputs": [],
      "name": "owner",
      "outputs": [
        {
          "name": "",
          "type": "address"
        }
      ],
      "payable": false,
      "stateMutability": "view",
      "type": "function"
    },
    {
      "constant": true,
      "inputs": [
        {
          "name": "",
          "type": "uint256"
        }
      ],
      "name": "bounties",
      "outputs": [
        {
          "name": "issuer",
          "type": "address"
        },
        {
          "name": "fulfillmentAmount",
          "type": "uint256"
        },
        {
          "name": "balance",
          "type": "uint256"
        },
        {
          "name": "tweetText",
          "type": "string"
        },
        {
          "name": "bountyOpen",
          "type": "bool"
        }
      ],
      "payable": false,
      "stateMutability": "view",
      "type": "function"
    },
    {
      "constant": false,
      "inputs": [
        {
          "name": "newOwner",
          "type": "address"
        }
      ],
      "name": "transferOwnership",
      "outputs": [],
      "payable": false,
      "stateMutability": "nonpayable",
      "type": "function"
    },
    {
      "constant": false,
      "inputs": [
        {
          "name": "_recipient",
          "type": "address"
        }
      ],
      "name": "destroyAndSend",
      "outputs": [],
      "payable": false,
      "stateMutability": "nonpayable",
      "type": "function"
    },
    {
      "inputs": [
        {
          "name": "_addr",
          "type": "address"
        }
      ],
      "payable": false,
      "stateMutability": "nonpayable",
      "type": "constructor"
    },
    {
      "payable": false,
      "stateMutability": "nonpayable",
      "type": "fallback"
    },
    {
      "anonymous": false,
      "inputs": [],
      "name": "Pause",
      "type": "event"
    },
    {
      "anonymous": false,
      "inputs": [],
      "name": "Unpause",
      "type": "event"
    },
    {
      "anonymous": false,
      "inputs": [
        {
          "indexed": true,
          "name": "previousOwner",
          "type": "address"
        },
        {
          "indexed": true,
          "name": "newOwner",
          "type": "address"
        }
      ],
      "name": "OwnershipTransferred",
      "type": "event"
    },
    {
      "constant": false,
      "inputs": [
        {
          "name": "_addr",
          "type": "address"
        }
      ],
      "name": "setOracle",
      "outputs": [],
      "payable": false,
      "stateMutability": "nonpayable",
      "type": "function"
    },
    {
      "constant": false,
      "inputs": [
        {
          "name": "_fulfillmentAmount",
          "type": "uint256"
        },
        {
          "name": "_postId",
          "type": "string"
        }
      ],
      "name": "createBounty",
      "outputs": [
        {
          "name": "",
          "type": "uint256"
        }
      ],
      "payable": true,
      "stateMutability": "payable",
      "type": "function"
    },
    {
      "constant": false,
      "inputs": [
        {
          "name": "_bountyId",
          "type": "uint256"
        },
        {
          "name": "_value",
          "type": "uint256"
        }
      ],
      "name": "contribute",
      "outputs": [],
      "payable": true,
      "stateMutability": "payable",
      "type": "function"
    },
    {
      "constant": false,
      "inputs": [
        {
          "name": "_bountyId",
          "type": "uint256"
        },
        {
          "name": "_postId",
          "type": "string"
        }
      ],
      "name": "fulfillBounty",
      "outputs": [
        {
          "name": "",
          "type": "bool"
        }
      ],
      "payable": false,
      "stateMutability": "nonpayable",
      "type": "function"
    },
    {
      "constant": false,
      "inputs": [
        {
          "name": "_bountyId",
          "type": "uint256"
        },
        {
          "name": "_newFulfillmentAmount",
          "type": "uint256"
        }
      ],
      "name": "changePayout",
      "outputs": [],
      "payable": true,
      "stateMutability": "payable",
      "type": "function"
    },
    {
      "constant": false,
      "inputs": [
        {
          "name": "_bountyId",
          "type": "uint256"
        }
      ],
      "name": "closeBounty",
      "outputs": [],
      "payable": false,
      "stateMutability": "nonpayable",
      "type": "function"
    },
    {
      "constant": true,
      "inputs": [
        {
          "name": "_bountyId",
          "type": "uint256"
        }
      ],
      "name": "getBounty",
      "outputs": [
        {
          "name": "",
          "type": "address"
        },
        {
          "name": "",
          "type": "uint256"
        },
        {
          "name": "",
          "type": "uint256"
        },
        {
          "name": "",
          "type": "string"
        },
        {
          "name": "",
          "type": "bool"
        }
      ],
      "payable": false,
      "stateMutability": "view",
      "type": "function"
    },
    {
      "constant": true,
      "inputs": [
        {
          "name": "_bountyId",
          "type": "uint256"
        },
        {
          "name": "_postId",
          "type": "string"
        }
      ],
      "name": "checkBountyTweetsUsed",
      "outputs": [
        {
          "name": "",
          "type": "bool"
        }
      ],
      "payable": false,
      "stateMutability": "view",
      "type": "function"
    },
    {
      "constant": true,
      "inputs": [],
      "name": "getNumBounties",
      "outputs": [
        {
          "name": "",
          "type": "uint256"
        }
      ],
      "payable": false,
      "stateMutability": "view",
      "type": "function"
    },
    {
      "constant": true,
      "inputs": [
        {
          "name": "_bountyId",
          "type": "uint256"
        }
      ],
      "name": "getNumFulfillments",
      "outputs": [
        {
          "name": "",
          "type": "uint256"
        }
      ],
      "payable": false,
      "stateMutability": "view",
      "type": "function"
    },
    {
      "constant": true,
      "inputs": [
        {
          "name": "_bountyId",
          "type": "uint256"
        },
        {
          "name": "_fulfillmentId",
          "type": "uint256"
        }
      ],
      "name": "getFulfillment",
      "outputs": [
        {
          "name": "",
          "type": "uint256"
        },
        {
          "name": "",
          "type": "address"
        },
        {
          "name": "",
          "type": "string"
        }
      ],
      "payable": false,
      "stateMutability": "view",
      "type": "function"
    },
    {
      "constant": true,
      "inputs": [
        {
          "name": "_postId",
          "type": "string"
        }
      ],
      "name": "getTweetText",
      "outputs": [
        {
          "name": "",
          "type": "string"
        }
      ],
      "payable": false,
      "stateMutability": "view",
      "type": "function"
    },
    {
      "constant": false,
      "inputs": [
        {
          "name": "_postId",
          "type": "string"
        }
      ],
      "name": "oraclizeTweet",
      "outputs": [],
      "payable": true,
      "stateMutability": "payable",
      "type": "function"
    }
  ],
  "bytecode": "0x608060405260008060146101000a81548160ff0219169083151502179055503480156200002b57600080fd5b50604051602080620032b383398101806040528101908080519060200190929190505050336000806101000a81548173ffffffffffffffffffffffffffffffffffffffff021916908373ffffffffffffffffffffffffffffffffffffffff16021790555033600160006101000a81548173ffffffffffffffffffffffffffffffffffffffff021916908373ffffffffffffffffffffffffffffffffffffffff160217905550620000ea81620000f1640100000000026401000000009004565b5062000191565b6000809054906101000a900473ffffffffffffffffffffffffffffffffffffffff1673ffffffffffffffffffffffffffffffffffffffff163373ffffffffffffffffffffffffffffffffffffffff161415156200014d57600080fd5b80600460006101000a81548173ffffffffffffffffffffffffffffffffffffffff021916908373ffffffffffffffffffffffffffffffffffffffff16021790555050565b61311280620001a16000396000f30060806040526004361061011d576000357c0100000000000000000000000000000000000000000000000000000000900463ffffffff1680631e688c14146101985780633278ba2f146102235780633a6f38b21461024e5780633f4ba83a146102c85780635c975abb146102df57806368b63d281461030e5780637adbf9731461039957806383197ef0146103dc5780638456cb59146103f35780638c5909171461040a5780638da5cb5b14610434578063b94b0a3a1461048b578063b988997f14610575578063c7fcf3a8146105a2578063cf2e2914146105cc578063dc2f8744146106ae578063ee8c4bbf146107a0578063f2fde38b14610892578063f5074f41146108d5578063fae571ca14610918578063fbe334f814610974575b34801561012957600080fd5b506040517f08c379a000000000000000000000000000000000000000000000000000000000815260040180806020018281038252601f8152602001807f46616c6c6261636b2066756e6374696f6e2e20526576657274696e672e2e2e0081525060200191505060405180910390fd5b3480156101a457600080fd5b5061020960048036038101908080359060200190929190803590602001908201803590602001908080601f01602080910402602001604051908101604052809392919081815260200183838082843782019150505050505091929192905050506109b5565b604051808215151515815260200191505060405180910390f35b34801561022f57600080fd5b50610238611427565b6040518082815260200191505060405180910390f35b6102b260048036038101908080359060200190929190803590602001908201803590602001908080601f0160208091040260200160405190810160405280939291908181526020018383808284378201915050505050509192919290505050611434565b6040518082815260200191505060405180910390f35b3480156102d457600080fd5b506102dd6119a1565b005b3480156102eb57600080fd5b506102f4611a5f565b604051808215151515815260200191505060405180910390f35b34801561031a57600080fd5b5061037f60048036038101908080359060200190929190803590602001908201803590602001908080601f0160208091040260200160405190810160405280939291908181526020018383808284378201915050505050509192919290505050611a72565b604051808215151515815260200191505060405180910390f35b3480156103a557600080fd5b506103da600480360381019080803573ffffffffffffffffffffffffffffffffffffffff169060200190929190505050611c0f565b005b3480156103e857600080fd5b506103f1611cae565b005b3480156103ff57600080fd5b50610408611d43565b005b6104326004803603810190808035906020019092919080359060200190929190505050611e03565b005b34801561044057600080fd5b50610449611ff5565b604051808273ffffffffffffffffffffffffffffffffffffffff1673ffffffffffffffffffffffffffffffffffffffff16815260200191505060405180910390f35b34801561049757600080fd5b506104c0600480360381019080803590602001909291908035906020019092919050505061201b565b604051808481526020018373ffffffffffffffffffffffffffffffffffffffff1673ffffffffffffffffffffffffffffffffffffffff16815260200180602001828103825283818151815260200191508051906020019080838360005b8381101561053857808201518184015260208101905061051d565b50505050905090810190601f1680156105655780820380516001836020036101000a031916815260200191505b5094505050505060405180910390f35b34801561058157600080fd5b506105a06004803603810190808035906020019092919050505061228d565b005b6105ca600480360381019080803590602001909291908035906020019092919050505061254a565b005b3480156105d857600080fd5b50610633600480360381019080803590602001908201803590602001908080601f0160208091040260200160405190810160405280939291908181526020018383808284378201915050505050509192919290505050612889565b6040518080602001828103825283818151815260200191508051906020019080838360005b83811015610673578082015181840152602081019050610658565b50505050905090810190601f1680156106a05780820380516001836020036101000a031916815260200191505b509250505060405180910390f35b3480156106ba57600080fd5b506106d960048036038101908080359060200190929190505050612a19565b604051808673ffffffffffffffffffffffffffffffffffffffff1673ffffffffffffffffffffffffffffffffffffffff1681526020018581526020018481526020018060200183151515158152602001828103825284818151815260200191508051906020019080838360005b83811015610761578082015181840152602081019050610746565b50505050905090810190601f16801561078e5780820380516001836020036101000a031916815260200191505b50965050505050505060405180910390f35b3480156107ac57600080fd5b506107cb60048036038101908080359060200190929190505050612b23565b604051808673ffffffffffffffffffffffffffffffffffffffff1673ffffffffffffffffffffffffffffffffffffffff1681526020018581526020018481526020018060200183151515158152602001828103825284818151815260200191508051906020019080838360005b83811015610853578082015181840152602081019050610838565b50505050905090810190601f1680156108805780820380516001836020036101000a031916815260200191505b50965050505050505060405180910390f35b34801561089e57600080fd5b506108d3600480360381019080803573ffffffffffffffffffffffffffffffffffffffff169060200190929190505050612d2a565b005b3480156108e157600080fd5b50610916600480360381019080803573ffffffffffffffffffffffffffffffffffffffff169060200190929190505050612e7f565b005b610972600480360381019080803590602001908201803590602001908080601f0160208091040260200160405190810160405280939291908181526020018383808284378201915050505050509192919290505050612ef3565b005b34801561098057600080fd5b5061099f60048036038101908080359060200190929190505050613021565b6040518082815260200191505060405180910390f35b60006060600060149054906101000a900460ff161515156109d557600080fd5b8360028054905081101515610a52576040517f08c379a00000000000000000000000000000000000000000000000000000000081526004018080602001828103825260128152602001807f496e76616c696420426f756e74792049442e000000000000000000000000000081525060200191505060405180910390fd5b8460036000828152602001908152602001600020805490506001600360008481526020019081526020016000208054905001111515610b45576040517f08c379a00000000000000000000000000000000000000000000000000000000081526004018080602001828103825260458152602001807f54686572652061726520746f6f206d616e792066756c66696c6c6d656e74732081526020017f666f72207468697320626f756e74792c2063617573696e6720616e206f76657281526020017f666c6f772e00000000000000000000000000000000000000000000000000000081525060600191505060405180910390fd5b8560011515600282815481101515610b5957fe5b906000526020600020906006020160040160009054906101000a900460ff161515141515610bef576040517f08c379a00000000000000000000000000000000000000000000000000000000081526004018080602001828103825260138152602001807f426f756e7479206973206e6f74206f70656e2e0000000000000000000000000081525060200191505060405180910390fd5b86600281815481101515610bff57fe5b906000526020600020906006020160010154600282815481101515610c2057fe5b90600052602060002090600602016002015410151515610cf4576040517f08c379a000000000000000000000000000000000000000000000000000000000815260040180806020018281038252604a8152602001807f5468652066756c66696c6c6d656e7420616d6f756e74206973206d6f7265207481526020017f68616e207468652062616c616e636520617661696c61626c6520666f7220746881526020017f697320626f756e74792e0000000000000000000000000000000000000000000081525060600191505060405180910390fd5b610cfd87612889565b945060011515600289815481101515610d1257fe5b90600052602060002090600602016005016000896040516020018082805190602001908083835b602083101515610d5e5780518252602082019150602081019050602083039250610d39565b6001836020036101000a0380198251168184511680821785525050505050509050019150506040516020818303038152906040526040518082805190602001908083835b602083101515610dc75780518252602082019150602081019050602083039250610da2565b6001836020036101000a03801982511681845116808217855250505050505090500191505060405180910390206000191660001916815260200190815260200160002060009054906101000a900460ff16151514151515610edc576040517f08c379a00000000000000000000000000000000000000000000000000000000081526004018080602001828103825260468152602001807f54686520747765657420796f752061726520747279696e6720746f207573652081526020017f68617320616c7265616479206265656e207573656420666f722074686973206281526020017f6f756e74792e000000000000000000000000000000000000000000000000000081525060600191505060405180910390fd5b846040516020018082805190602001908083835b602083101515610f155780518252602082019150602081019050602083039250610ef0565b6001836020036101000a0380198251168184511680821785525050505050509050019150506040516020818303038152906040526040518082805190602001908083835b602083101515610f7e5780518252602082019150602081019050602083039250610f59565b6001836020036101000a038019825116818451168082178552505050505050905001915050604051809103902060001916600289815481101515610fbe57fe5b9060005260206000209060060201600301604051602001808280546001816001161561010002031660029004801561102d5780601f1061100b57610100808354040283529182019161102d565b820191906000526020600020905b815481529060010190602001808311611019575b50509150506040516020818303038152906040526040518082805190602001908083835b6020831015156110765780518252602082019150602081019050602083039250611051565b6001836020036101000a038019825116818451168082178552505050505050905001915050604051809103902060001916141515611142576040517f08c379a000000000000000000000000000000000000000000000000000000000815260040180806020018281038252603f8152602001807f54686520747765657420796f752061726520747279696e6720746f207573652081526020017f646f6573206e6f74206d617463682074686520626f756e747920746578742e0081525060400191505060405180910390fd5b600160028981548110151561115357fe5b90600052602060002090600602016005016000896040516020018082805190602001908083835b60208310151561119f578051825260208201915060208101905060208303925061117a565b6001836020036101000a0380198251168184511680821785525050505050509050019150506040516020818303038152906040526040518082805190602001908083835b60208310151561120857805182526020820191506020810190506020830392506111e3565b6001836020036101000a03801982511681845116808217855250505050505090500191505060405180910390206000191660001916815260200190815260200160002060006101000a81548160ff0219169083151502179055506003600089815260200190815260200160002060606040519081016040528060028b81548110151561129057fe5b90600052602060002090600602016001015481526020013373ffffffffffffffffffffffffffffffffffffffff16815260200189815250908060018154018082558091505090600182039060005260206000209060030201600090919290919091506000820151816000015560208201518160010160006101000a81548173ffffffffffffffffffffffffffffffffffffffff021916908373ffffffffffffffffffffffffffffffffffffffff160217905550604082015181600201908051906020019061135f929190613041565b5050505060028881548110151561137257fe5b90600052602060002090600602016001015460028981548110151561139357fe5b9060005260206000209060060201600201600082825403925050819055503373ffffffffffffffffffffffffffffffffffffffff166108fc60028a8154811015156113da57fe5b9060005260206000209060060201600101549081150290604051600060405180830381858888f19350505050158015611417573d6000803e3d6000fd5b5060019550505050505092915050565b6000600280549050905090565b60006060600060149054906101000a900460ff1615151561145457600080fd5b83600081141515156114ce576040517f08c379a000000000000000000000000000000000000000000000000000000000815260040180806020018281038252601a8152602001807f54686520616d6f756e742063616e6e6f74206265207a65726f2e00000000000081525060200191505060405180910390fd5b600280549050600160028054905001111515611578576040517f08c379a000000000000000000000000000000000000000000000000000000000815260040180806020018281038252603c8152602001807f54686572652061726520746f6f206d616e7920626f756e74696573207265676981526020017f7374657265642c2063617573696e6720616e206f766572666c6f772e0000000081525060400191505060405180910390fd5b8360405180600001905060405180910390206000191661159782612889565b6040516020018082805190602001908083835b6020831015156115cf57805182526020820191506020810190506020830392506115aa565b6001836020036101000a0380198251168184511680821785525050505050509050019150506040516020818303038152906040526040518082805190602001908083835b6020831015156116385780518252602082019150602081019050602083039250611613565b6001836020036101000a03801982511681845116808217855250505050505090500191505060405180910390206000191614151515611751576040517f08c379a00000000000000000000000000000000000000000000000000000000081526004018080602001828103825260718152602001807f546865207477656574207465787420697320656d7074792e205468697320747781526020017f656574206d61792068617665206e65766572206265656e206f7261636c697a6581526020017f642c206f72206d617920686176652072756e20696e746f20616e20697373756581526020017f207768656e206f7261636c697a696e672e00000000000000000000000000000081525060800191505060405180910390fd5b61175a85612889565b9250600260a0604051908101604052803373ffffffffffffffffffffffffffffffffffffffff168152602001888152602001348152602001858152602001600115158152509080600181540180825580915050906001820390600052602060002090600602016000909192909190915060008201518160000160006101000a81548173ffffffffffffffffffffffffffffffffffffffff021916908373ffffffffffffffffffffffffffffffffffffffff16021790555060208201518160010155604082015181600201556060820151816003019080519060200190611841929190613041565b5060808201518160040160006101000a81548160ff0219169083151502179055505050506001600260016002805490500381548110151561187e57fe5b90600052602060002090600602016005016000876040516020018082805190602001908083835b6020831015156118ca57805182526020820191506020810190506020830392506118a5565b6001836020036101000a0380198251168184511680821785525050505050509050019150506040516020818303038152906040526040518082805190602001908083835b602083101515611933578051825260208201915060208101905060208303925061190e565b6001836020036101000a03801982511681845116808217855250505050505090500191505060405180910390206000191660001916815260200190815260200160002060006101000a81548160ff021916908315150217905550600160028054905003935050505092915050565b6000809054906101000a900473ffffffffffffffffffffffffffffffffffffffff1673ffffffffffffffffffffffffffffffffffffffff163373ffffffffffffffffffffffffffffffffffffffff161415156119fc57600080fd5b600060149054906101000a900460ff161515611a1757600080fd5b60008060146101000a81548160ff0219169083151502179055507f7805862f689e2f13df9f062ff482ad3ad112aca9e0847911ed832e158c525b3360405160405180910390a1565b600060149054906101000a900460ff1681565b60008260028054905081101515611af1576040517f08c379a00000000000000000000000000000000000000000000000000000000081526004018080602001828103825260128152602001807f496e76616c696420426f756e74792049442e000000000000000000000000000081525060200191505060405180910390fd5b600284815481101515611b0057fe5b90600052602060002090600602016005016000846040516020018082805190602001908083835b602083101515611b4c5780518252602082019150602081019050602083039250611b27565b6001836020036101000a0380198251168184511680821785525050505050509050019150506040516020818303038152906040526040518082805190602001908083835b602083101515611bb55780518252602082019150602081019050602083039250611b90565b6001836020036101000a03801982511681845116808217855250505050505090500191505060405180910390206000191660001916815260200190815260200160002060009054906101000a900460ff1691505092915050565b6000809054906101000a900473ffffffffffffffffffffffffffffffffffffffff1673ffffffffffffffffffffffffffffffffffffffff163373ffffffffffffffffffffffffffffffffffffffff16141515611c6a57600080fd5b80600460006101000a81548173ffffffffffffffffffffffffffffffffffffffff021916908373ffffffffffffffffffffffffffffffffffffffff16021790555050565b6000809054906101000a900473ffffffffffffffffffffffffffffffffffffffff1673ffffffffffffffffffffffffffffffffffffffff163373ffffffffffffffffffffffffffffffffffffffff16141515611d0957600080fd5b6000809054906101000a900473ffffffffffffffffffffffffffffffffffffffff1673ffffffffffffffffffffffffffffffffffffffff16ff5b6000809054906101000a900473ffffffffffffffffffffffffffffffffffffffff1673ffffffffffffffffffffffffffffffffffffffff163373ffffffffffffffffffffffffffffffffffffffff16141515611d9e57600080fd5b600060149054906101000a900460ff16151515611dba57600080fd5b6001600060146101000a81548160ff0219169083151502179055507f6985a02210a168e66602d3235cb6db0e70f92b3ba4d376a33c0f3d9434bff62560405160405180910390a1565b600060149054906101000a900460ff16151515611e1f57600080fd5b8160028054905081101515611e9c576040517f08c379a00000000000000000000000000000000000000000000000000000000081526004018080602001828103825260128152602001807f496e76616c696420426f756e74792049442e000000000000000000000000000081525060200191505060405180910390fd5b8260011515600282815481101515611eb057fe5b906000526020600020906006020160040160009054906101000a900460ff161515141515611f46576040517f08c379a00000000000000000000000000000000000000000000000000000000081526004018080602001828103825260138152602001807f426f756e7479206973206e6f74206f70656e2e0000000000000000000000000081525060200191505060405180910390fd5b8260008114151515611fc0576040517f08c379a000000000000000000000000000000000000000000000000000000000815260040180806020018281038252601a8152602001807f54686520616d6f756e742063616e6e6f74206265207a65726f2e00000000000081525060200191505060405180910390fd5b34600286815481101515611fd057fe5b9060005260206000209060060201600201600082825401925050819055505050505050565b600160009054906101000a900473ffffffffffffffffffffffffffffffffffffffff1681565b6000806060846002805490508110151561209d576040517f08c379a00000000000000000000000000000000000000000000000000000000081526004018080602001828103825260128152602001807f496e76616c696420426f756e74792049442e000000000000000000000000000081525060200191505060405180910390fd5b858560036000838152602001908152602001600020805490508110151561212c576040517f08c379a00000000000000000000000000000000000000000000000000000000081526004018080602001828103825260178152602001807f496e76616c69642046756c66696c6c6d656e742049442e00000000000000000081525060200191505060405180910390fd5b600360008981526020019081526020016000208781548110151561214c57fe5b906000526020600020906003020160000154600360008a81526020019081526020016000208881548110151561217e57fe5b906000526020600020906003020160010160009054906101000a900473ffffffffffffffffffffffffffffffffffffffff16600360008b8152602001908152602001600020898154811015156121d057fe5b9060005260206000209060030201600201808054600181600116156101000203166002900480601f0160208091040260200160405190810160405280929190818152602001828054600181600116156101000203166002900480156122765780601f1061224b57610100808354040283529160200191612276565b820191906000526020600020905b81548152906001019060200180831161225957829003601f168201915b505050505090509550955095505050509250925092565b60008060149054906101000a900460ff161515156122aa57600080fd5b8160028054905081101515612327576040517f08c379a00000000000000000000000000000000000000000000000000000000081526004018080602001828103825260128152602001807f496e76616c696420426f756e74792049442e000000000000000000000000000081525060200191505060405180910390fd5b823373ffffffffffffffffffffffffffffffffffffffff1660028281548110151561234e57fe5b906000526020600020906006020160000160009054906101000a900473ffffffffffffffffffffffffffffffffffffffff1673ffffffffffffffffffffffffffffffffffffffff16141515612431576040517f08c379a00000000000000000000000000000000000000000000000000000000081526004018080602001828103825260368152602001807f4f6e6c792074686520697373756572206f66207468697320626f756e7479206381526020017f616e2063616c6c20746869732066756e6374696f6e2e0000000000000000000081525060400191505060405180910390fd5b600060028581548110151561244257fe5b906000526020600020906006020160040160006101000a81548160ff02191690831515021790555060028481548110151561247957fe5b9060005260206000209060060201600201549250600060028581548110151561249e57fe5b9060005260206000209060060201600201819055506000831115612544576002848154811015156124cb57fe5b906000526020600020906006020160000160009054906101000a900473ffffffffffffffffffffffffffffffffffffffff1673ffffffffffffffffffffffffffffffffffffffff166108fc849081150290604051600060405180830381858888f19350505050158015612542573d6000803e3d6000fd5b505b50505050565b600060149054906101000a900460ff1615151561256657600080fd5b81600280549050811015156125e3576040517f08c379a00000000000000000000000000000000000000000000000000000000081526004018080602001828103825260128152602001807f496e76616c696420426f756e74792049442e000000000000000000000000000081525060200191505060405180910390fd5b823373ffffffffffffffffffffffffffffffffffffffff1660028281548110151561260a57fe5b906000526020600020906006020160000160009054906101000a900473ffffffffffffffffffffffffffffffffffffffff1673ffffffffffffffffffffffffffffffffffffffff161415156126ed576040517f08c379a00000000000000000000000000000000000000000000000000000000081526004018080602001828103825260368152602001807f4f6e6c792074686520697373756572206f66207468697320626f756e7479206381526020017f616e2063616c6c20746869732066756e6374696f6e2e0000000000000000000081525060400191505060405180910390fd5b836001151560028281548110151561270157fe5b906000526020600020906006020160040160009054906101000a900460ff161515141515612797576040517f08c379a00000000000000000000000000000000000000000000000000000000081526004018080602001828103825260138152602001807f426f756e7479206973206e6f74206f70656e2e0000000000000000000000000081525060200191505060405180910390fd5b346002868154811015156127a757fe5b906000526020600020906006020160020160008282540192505081905550836002868154811015156127d557fe5b9060005260206000209060060201600201541015151561285d576040517f08c379a00000000000000000000000000000000000000000000000000000000081526004018080602001828103825260098152602001807f4d616b652073757265000000000000000000000000000000000000000000000081525060200191505060405180910390fd5b8360028681548110151561286d57fe5b9060005260206000209060060201600101819055505050505050565b6060600460009054906101000a900473ffffffffffffffffffffffffffffffffffffffff1673ffffffffffffffffffffffffffffffffffffffff1663cf2e2914836040518263ffffffff167c01000000000000000000000000000000000000000000000000000000000281526004018080602001828103825283818151815260200191508051906020019080838360005b8381101561293557808201518184015260208101905061291a565b50505050905090810190601f1680156129625780820380516001836020036101000a031916815260200191505b5092505050600060405180830381600087803b15801561298157600080fd5b505af1158015612995573d6000803e3d6000fd5b505050506040513d6000823e3d601f19601f8201168201806040525060208110156129bf57600080fd5b8101908080516401000000008111156129d757600080fd5b828101905060208101848111156129ed57600080fd5b8151856001820283011164010000000082111715612a0a57600080fd5b50509291905050509050919050565b600281815481101515612a2857fe5b90600052602060002090600602016000915090508060000160009054906101000a900473ffffffffffffffffffffffffffffffffffffffff1690806001015490806002015490806003018054600181600116156101000203166002900480601f016020809104026020016040519081016040528092919081815260200182805460018160011615610100020316600290048015612b065780601f10612adb57610100808354040283529160200191612b06565b820191906000526020600020905b815481529060010190602001808311612ae957829003601f168201915b5050505050908060040160009054906101000a900460ff16905085565b6000806000606060008560028054905081101515612ba9576040517f08c379a00000000000000000000000000000000000000000000000000000000081526004018080602001828103825260128152602001807f496e76616c696420426f756e74792049442e000000000000000000000000000081525060200191505060405180910390fd5b600287815481101515612bb857fe5b906000526020600020906006020160000160009054906101000a900473ffffffffffffffffffffffffffffffffffffffff16600288815481101515612bf957fe5b906000526020600020906006020160010154600289815481101515612c1a57fe5b90600052602060002090600602016002015460028a815481101515612c3b57fe5b906000526020600020906006020160030160028b815481101515612c5b57fe5b906000526020600020906006020160040160009054906101000a900460ff16818054600181600116156101000203166002900480601f016020809104026020016040519081016040528092919081815260200182805460018160011615610100020316600290048015612d0f5780601f10612ce457610100808354040283529160200191612d0f565b820191906000526020600020905b815481529060010190602001808311612cf257829003601f168201915b50505050509150955095509550955095505091939590929450565b6000809054906101000a900473ffffffffffffffffffffffffffffffffffffffff1673ffffffffffffffffffffffffffffffffffffffff163373ffffffffffffffffffffffffffffffffffffffff16141515612d8557600080fd5b600073ffffffffffffffffffffffffffffffffffffffff168173ffffffffffffffffffffffffffffffffffffffff1614151515612dc157600080fd5b8073ffffffffffffffffffffffffffffffffffffffff166000809054906101000a900473ffffffffffffffffffffffffffffffffffffffff1673ffffffffffffffffffffffffffffffffffffffff167f8be0079c531659141344cd1fd0a4f28419497f9722a3daafe3b4186f6b6457e060405160405180910390a3806000806101000a81548173ffffffffffffffffffffffffffffffffffffffff021916908373ffffffffffffffffffffffffffffffffffffffff16021790555050565b6000809054906101000a900473ffffffffffffffffffffffffffffffffffffffff1673ffffffffffffffffffffffffffffffffffffffff163373ffffffffffffffffffffffffffffffffffffffff16141515612eda57600080fd5b8073ffffffffffffffffffffffffffffffffffffffff16ff5b600060149054906101000a900460ff16151515612f0f57600080fd5b600460009054906101000a900473ffffffffffffffffffffffffffffffffffffffff1673ffffffffffffffffffffffffffffffffffffffff1663fae571ca34836040518363ffffffff167c01000000000000000000000000000000000000000000000000000000000281526004018080602001828103825283818151815260200191508051906020019080838360005b83811015612fba578082015181840152602081019050612f9f565b50505050905090810190601f168015612fe75780820380516001836020036101000a031916815260200191505b50925050506000604051808303818588803b15801561300557600080fd5b505af1158015613019573d6000803e3d6000fd5b505050505050565b600060036000838152602001908152602001600020805490509050919050565b828054600181600116156101000203166002900490600052602060002090601f016020900481019282601f1061308257805160ff19168380011785556130b0565b828001600101855582156130b0579182015b828111156130af578251825591602001919060010190613094565b5b5090506130bd91906130c1565b5090565b6130e391905b808211156130df5760008160009055506001016130c7565b5090565b905600a165627a7a72305820b2acb74aaa5019a49ba575ae0092b27c79278698f48a65b8a144bddb3621b7fe0029",
  "source": "pragma solidity 0.4.24;\r\n\r\nimport \"installed_contracts/zeppelin/contracts/ownership/Ownable.sol\";\r\nimport \"installed_contracts/zeppelin/contracts/lifecycle/Pausable.sol\";\r\nimport \"installed_contracts/zeppelin/contracts/lifecycle/Destructible.sol\";\r\n\r\n/// @title A skeleton for the Twitter Oracle contract\r\n/// @author Shawn Tabrizi\r\n/// @notice The Twitter Oracle contract allows users to retrieve and store twitter post text onto the blockchain\r\ncontract TwitterOracle {\r\n    /// @notice Retrieve the tweet text for a given post stored in the contract\r\n    /// @dev Returned string may come back in an array syntax and will need to be parsed by the front-end\r\n    /// @param _postId The post id you want to retrieve text for. Expecting \"<user>/status/<id>\".\r\n    /// @return string of the text for that post\r\n    function getTweetText(string _postId) public view returns(string);\r\n\r\n    /// @notice Oraclize tweet text for a given post and store it in the contract\r\n    /// @dev Calling this function requires the Twitter Oracle contract has funds, thus this function is payable so the user can provide those funds\r\n    /// @param _postId The post id you want to oraclize. Expecting \"<user>/status/<id>\".\r\n    function oraclizeTweet(string _postId) public payable;\r\n}\r\n\r\n/// @title The Twitter Bounty contract which allows users to create bounties for posting tweets\r\n/// @author Shawn Tabrizi\r\n/// @notice This contract follows many similar patterns to Bounties Network's StandardBounties.sol\r\ncontract TwitterBounty is Ownable, Pausable, Destructible {\r\n    /* Storage */\r\n    address public owner;\r\n    Bounty[] public bounties;\r\n    mapping(uint => Fulfillment[]) fulfillments;\r\n    TwitterOracle oracleContract;\r\n\r\n    /* Structs */\r\n    struct Bounty {\r\n        address issuer;\r\n        uint256 fulfillmentAmount;\r\n        uint256 balance;\r\n        string tweetText;\r\n        bool bountyOpen;\r\n        mapping (bytes32 => bool) tweetsUsed;\r\n    }\r\n\r\n    struct Fulfillment {\r\n        uint256 fulfillmentAmount;\r\n        address fulfiller;\r\n        string tweetId;\r\n    }\r\n\r\n    /* Modifiers */\r\n    /// @notice Checks that the amount is not equal to zero\r\n    /// @dev To be used in situations like funding a bounty and setting the bounty fulfillment reward\r\n    /// @param _amount The amount to be checked\r\n    modifier amountIsNotZero(uint256 _amount) {\r\n        require (\r\n            _amount != 0,\r\n            \"The amount cannot be zero.\"\r\n            );\r\n        _;\r\n    }\r\n\r\n    /// @notice Checks that the bounty array won't overflow\r\n    /// @dev To be used before a new bounty is created\r\n    modifier validateNotTooManyBounties() {\r\n        require(\r\n            (bounties.length + 1) > bounties.length,\r\n            \"There are too many bounties registered, causing an overflow.\"\r\n            );\r\n        _;\r\n    }\r\n    \r\n    /// @notice Checks that the number of fulfillments won't overflow for a specific bounty\r\n    /// @dev To be used before a new fulfillment is created for a bounty\r\n    /// @param _bountyId The bounty to check fulfillments for\r\n    modifier validateNotTooManyFulfillments(uint _bountyId){\r\n        require(\r\n            (fulfillments[_bountyId].length + 1) > fulfillments[_bountyId].length,\r\n            \"There are too many fulfillments for this bounty, causing an overflow.\"\r\n            );\r\n        _;\r\n    }\r\n\r\n    /// @notice Checks that a specific Bounty ID is within the range of registered bounties\r\n    /// @dev To be used in any situation where we are accessing an existing bounty\r\n    /// @param _bountyId The Bounty ID to validate\r\n    modifier validateBountyArrayIndex(uint _bountyId){\r\n        require(\r\n            _bountyId < bounties.length,\r\n            \"Invalid Bounty ID.\"\r\n            );\r\n        _;\r\n    }\r\n\r\n    /// @notice Checks that a specific Bounty ID is open\r\n    /// @dev To be used in any situation where a bounty is being modified or fulfilled\r\n    /// @param _bountyId The Bounty ID to check if open\r\n    modifier isOpen(uint _bountyId) {\r\n        require(\r\n            bounties[_bountyId].bountyOpen == true,\r\n            \"Bounty is not open.\"\r\n            );\r\n        _;\r\n    }\r\n\r\n    /// @notice Checks that the the function is being called by the owner of the bounty\r\n    /// @dev To be used in any situation where the function performs a privledged action to the bounty\r\n    /// @param _bountyId The Bounty ID to check the owner of\r\n    modifier onlyIssuer(uint _bountyId) {\r\n        require(\r\n            bounties[_bountyId].issuer == msg.sender,\r\n            \"Only the issuer of this bounty can call this function.\"\r\n            );\r\n        _;\r\n    }\r\n    \r\n    /// @notice Checks that the bounty has enough of a balance to pay a fulfillment\r\n    /// @dev To be used before a fulfillment is completed\r\n    /// @param _bountyId The Bounty ID to check the balance of\r\n    modifier enoughFundsToPay(uint _bountyId) {\r\n        require(\r\n            bounties[_bountyId].balance >= bounties[_bountyId].fulfillmentAmount,\r\n            \"The fulfillment amount is more than the balance available for this bounty.\"\r\n            );\r\n        _;\r\n    }\r\n\r\n    /// @notice Checks that a specific Fulfillment ID is within the range of fullfillments for a bounty\r\n    /// @dev To be used in any situation where we are accessing a fulfillment\r\n    /// @param _bountyId The Bounty ID which has the fulfillment to be checked\r\n    /// @param _index The index of the fulfillment to be checked\r\n    modifier validateFulfillmentArrayIndex(uint _bountyId, uint _index) {\r\n        require(\r\n            _index < fulfillments[_bountyId].length,\r\n            \"Invalid Fulfillment ID.\"\r\n            );\r\n        _;\r\n    }\r\n\r\n    /// @notice Check that the text for a tweet is not empty\r\n    /// @dev An empty tweet text implies that the tweet was not oraclized, or failed to oraclize\r\n    /// @param _postId The tweet id to check. Expecting \"<user>/status/<id>\"\r\n    modifier tweetTextNotEmpty(string _postId) {\r\n        require(\r\n            keccak256(abi.encodePacked(getTweetText(_postId))) != keccak256(\"\"),\r\n            \"The tweet text is empty. This tweet may have never been oraclized, or may have run into an issue when oraclizing.\"\r\n            );\r\n        _;\r\n    }\r\n\r\n    /* Functions */\r\n    /// @notice Constructor function which establishes the contract owner and initializes the Twitter Oracle address\r\n    /// @dev Ownership can be managed through Open-Zeppelin's Ownable.sol which this contract uses. Oracle address can be updated using SetOracle\r\n    /// @param _addr The address of the Twitter Oracle contract\r\n    constructor(address _addr)\r\n    public\r\n    {\r\n        owner = msg.sender;\r\n        setOracle(_addr);\r\n    }\r\n\r\n    /// @notice The fallback function for the contract\r\n    /// @dev Will simply revert any unexpected calls\r\n    function()\r\n    public\r\n    {\r\n        revert(\"Fallback function. Reverting...\");\r\n    }\r\n\r\n    /// @notice Allows the contract to update the Twitter Oracle it uses for creating bounties\r\n    /// @dev Only the owner of this contract can call this function\r\n    /// @param _addr The address of the Twitter Oracle contract\r\n    function setOracle(address _addr)\r\n    public\r\n    onlyOwner\r\n    {\r\n        oracleContract = TwitterOracle(_addr);\r\n    }\r\n\r\n    /// @notice This function will create a new open bounty using a stored tweet text\r\n    /// @dev This function only works if the contract is not paused, if the fulfillment is greater than zero, there are room to make more bounties, and the tweet text has content.\r\n    /// @param _fulfillmentAmount The amount a user will be paid when they fulfill a bounty\r\n    /// @param _postId The post that will be used to establish the text requirements for this bounty\r\n    /// @return The bountyId that was created as a result of this function call\r\n    function createBounty(\r\n        uint256 _fulfillmentAmount,\r\n        string _postId\r\n    )\r\n    public\r\n    payable\r\n    whenNotPaused\r\n    amountIsNotZero(_fulfillmentAmount)\r\n    validateNotTooManyBounties\r\n    tweetTextNotEmpty(_postId)\r\n    returns (uint)\r\n    {\r\n        string memory postText = getTweetText(_postId);\r\n        bounties.push(Bounty(msg.sender, _fulfillmentAmount, msg.value, postText, true));\r\n        bounties[bounties.length - 1].tweetsUsed[keccak256(abi.encodePacked(_postId))] = true;\r\n        return (bounties.length - 1);\r\n    }\r\n\r\n    /// @notice This function allows anyone to add additional funds to an open bounty\r\n    /// @dev Note that these funds are under full control of the bounty creator, and the bounty can be closed and drained at any time\r\n    /// @param _bountyId The bounty that the user wants to contribute to\r\n    /// @param _value The amount that the user wants to contribute. Must match msg.value to make sure funds aren't accidentally deposited.\r\n    function contribute (uint _bountyId, uint _value)\r\n    public\r\n    payable\r\n    whenNotPaused\r\n    validateBountyArrayIndex(_bountyId)\r\n    isOpen(_bountyId)\r\n    amountIsNotZero(_value)\r\n    {\r\n        bounties[_bountyId].balance += msg.value;\r\n    }\r\n\r\n    /// @notice This function allows any user to fulfill an open bounty using a post saved to the Twitter Oracle contract, and will automatically pay out\r\n    /// @dev This function only works if there are enough funds to pay someone and if the bounty is open.\r\n    /// @param _bountyId The bounty that the user is trying to fulfill\r\n    /// @param _postId The Twitter post that will be used to try and fulfill the bounty\r\n    /// @return Returns true if fulfillment completes. Can be used to check the function before it is actually run using .call()\r\n    function fulfillBounty(uint _bountyId, string _postId)\r\n    public\r\n    whenNotPaused\r\n    validateBountyArrayIndex(_bountyId)\r\n    validateNotTooManyFulfillments(_bountyId)\r\n    isOpen(_bountyId)\r\n    enoughFundsToPay(_bountyId)\r\n    returns (bool)\r\n    {\r\n        string memory postText = getTweetText(_postId);\r\n        require(\r\n            bounties[_bountyId].tweetsUsed[keccak256(abi.encodePacked(_postId))] != true,\r\n            \"The tweet you are trying to use has already been used for this bounty.\"\r\n            );\r\n        require(\r\n            keccak256(abi.encodePacked(bounties[_bountyId].tweetText)) == keccak256(abi.encodePacked(postText)),\r\n            \"The tweet you are trying to use does not match the bounty text.\"\r\n            );\r\n        bounties[_bountyId].tweetsUsed[keccak256(abi.encodePacked(_postId))] = true;\r\n        fulfillments[_bountyId].push(Fulfillment(bounties[_bountyId].fulfillmentAmount, msg.sender, _postId));\r\n        bounties[_bountyId].balance -= bounties[_bountyId].fulfillmentAmount;\r\n        msg.sender.transfer(bounties[_bountyId].fulfillmentAmount);\r\n        return true;\r\n    }\r\n\r\n    /// @notice This function allows the owner of a bounty to change the fulfillment amount for that bounty\r\n    /// @dev This function requires that the new fulfillment amount is less than available balance for the bounty, which is why this function is also payable\r\n    /// @param _bountyId The bounty the owner is trying to changet the fulfillment amount for\r\n    /// @param _newFulfillmentAmount The new amount that users who fulfill the bounty will be paid \r\n    function changePayout(uint _bountyId, uint _newFulfillmentAmount)\r\n    public\r\n    payable\r\n    whenNotPaused\r\n    validateBountyArrayIndex(_bountyId)\r\n    onlyIssuer(_bountyId)\r\n    isOpen(_bountyId)\r\n    {\r\n        bounties[_bountyId].balance += msg.value;\r\n        require(\r\n            bounties[_bountyId].balance >= _newFulfillmentAmount,\r\n            \"Make sure\"\r\n            );\r\n        bounties[_bountyId].fulfillmentAmount = _newFulfillmentAmount;\r\n    }\r\n\r\n    /// @notice This function allows the owner of a bounty to close that bounty, and drain all funds from the bounty\r\n    /// @dev Only the bounty creator can call this function\r\n    /// @param _bountyId The bounty the owner wants to close\r\n    function closeBounty(uint _bountyId)\r\n    public\r\n    whenNotPaused\r\n    validateBountyArrayIndex(_bountyId)\r\n    onlyIssuer(_bountyId)\r\n    {\r\n        bounties[_bountyId].bountyOpen = false;\r\n        uint tempBalance = bounties[_bountyId].balance;\r\n        bounties[_bountyId].balance = 0;\r\n        if (tempBalance > 0) {\r\n            bounties[_bountyId].issuer.transfer(tempBalance);\r\n        }\r\n    }\r\n\r\n    /// @notice Returns the details of a bounty\r\n    /// @dev It does not include the mapping of tweets used to fulfill the bounty\r\n    /// @param _bountyId The bounty that should be retrieved\r\n    /// @return A tuple of the bounty details\r\n    function getBounty(uint _bountyId)\r\n    public\r\n    view\r\n    validateBountyArrayIndex(_bountyId)\r\n    returns (address, uint, uint, string, bool)\r\n    {\r\n        return (\r\n            bounties[_bountyId].issuer,\r\n            bounties[_bountyId].fulfillmentAmount,\r\n            bounties[_bountyId].balance,\r\n            bounties[_bountyId].tweetText,\r\n            bounties[_bountyId].bountyOpen\r\n        );\r\n    }\r\n\r\n    /// @notice Checks if a specific Tweet has already been used for a bounty\r\n    /// @dev Can be used to proactively check for problems before the user submits a transaction\r\n    /// @param _bountyId The bounty to check for tweets used\r\n    /// @param _postId The twitter post to check if it was already used\r\n    /// @return Returns true if the post has been used, otherwise it returns false\r\n    function checkBountyTweetsUsed(uint _bountyId, string _postId)\r\n    public\r\n    view\r\n    validateBountyArrayIndex(_bountyId)\r\n    returns (bool)\r\n    {\r\n        return (bounties[_bountyId].tweetsUsed[keccak256(abi.encodePacked(_postId))]);\r\n    }\r\n\r\n    /// @notice Returns the number of bounties registered in the contract\r\n    /// @dev Can be used to iterate over all the bounties in the contract\r\n    /// @return Returns the number of bounties\r\n    function getNumBounties()\r\n    public\r\n    view\r\n    returns (uint)\r\n    {\r\n        return bounties.length;\r\n    }\r\n\r\n    /// @notice Returns the number of fulfillments completed for a bounty\r\n    /// @dev Can be used to iterate over all the fulfillments for a bounty\r\n    /// @param _bountyId The bounty to get the number of fulfillments for\r\n    /// @return Returns the number of fulfillments for a bounty\r\n    function getNumFulfillments(uint _bountyId)\r\n    public\r\n    view\r\n    returns (uint)\r\n    {\r\n        return fulfillments[_bountyId].length;\r\n    }\r\n\r\n    /// @notice Gets the fulfillment details for a specific bounty and fulfillment\r\n    /// @param _bountyId The bounty which has the fulfillment to be returned\r\n    /// @param _fulfillmentId The fulfillment to be returned\r\n    /// @return Returns a tuple of details for the fulfillment\r\n    function getFulfillment(uint _bountyId, uint _fulfillmentId)\r\n    public\r\n    view\r\n    validateBountyArrayIndex(_bountyId)\r\n    validateFulfillmentArrayIndex(_bountyId, _fulfillmentId)\r\n    returns (uint256, address, string)\r\n    {\r\n        return (\r\n            fulfillments[_bountyId][_fulfillmentId].fulfillmentAmount,\r\n            fulfillments[_bountyId][_fulfillmentId].fulfiller,\r\n            fulfillments[_bountyId][_fulfillmentId].tweetId\r\n        );\r\n    }\r\n\r\n    /* Twitter Oracle Functions */\r\n    /// @notice Gets the tweet text for a twitter post from the Twitter Oracle\r\n    /// @dev Simply a passthrough function for the Twitter Oracle contract\r\n    /// @param _postId The twitter post to get the text for\r\n    /// @return Returns text for the twitter post, or in the case where the post hasn't been stored yet, it will return an empty string\r\n    function getTweetText(string _postId)\r\n    public\r\n    view\r\n    returns(string)\r\n    {\r\n        return oracleContract.getTweetText(_postId);\r\n    }\r\n\r\n    /// @notice Requests the Twitter Oracle contract to retrieve and store the tweet text for a Twitter post\r\n    /// @dev The Twitter Oracle contract requires funds to support storing the Oraclize callback, which is why this function is Payable, and will forward funds to the Twitter Oracle\r\n    /// @param _postId The twitter post to retrieve and store in the Twitter Oracle contract\r\n    function oraclizeTweet(string _postId)\r\n    public\r\n    payable\r\n    whenNotPaused\r\n    {\r\n        oracleContract.oraclizeTweet.value(msg.value)(_postId);\r\n    }\r\n}",
  "sourcePath": "C:\\Users\\shtabriz\\Documents\\GitHub\\ConsenSys-Academy-2018-Developer-Program-Final-Project\\twitter-bounty\\contracts\\TwitterBounty.sol",
  "compiler": {
    "name": "solc",
    "version": "0.4.24+commit.e67f0147.Emscripten.clang"
  },
  "schemaVersion": "2.0.1",
  "updatedAt": "2018-08-17T18:29:06.754Z"
}