{
  "contractName": "BirdBounty",
  "abi": [
    {
      "constant": false,
      "inputs": [],
      "name": "unpause",
      "outputs": [],
      "payable": false,
      "stateMutability": "nonpayable",
      "type": "function"
    },
    {
      "constant": true,
      "inputs": [],
      "name": "paused",
      "outputs": [
        {
          "name": "",
          "type": "bool"
        }
      ],
      "payable": false,
      "stateMutability": "view",
      "type": "function"
    },
    {
      "constant": false,
      "inputs": [],
      "name": "destroy",
      "outputs": [],
      "payable": false,
      "stateMutability": "nonpayable",
      "type": "function"
    },
    {
      "constant": false,
      "inputs": [],
      "name": "pause",
      "outputs": [],
      "payable": false,
      "stateMutability": "nonpayable",
      "type": "function"
    },
    {
      "constant": true,
      "inputs": [],
      "name": "owner",
      "outputs": [
        {
          "name": "",
          "type": "address"
        }
      ],
      "payable": false,
      "stateMutability": "view",
      "type": "function"
    },
    {
      "constant": true,
      "inputs": [
        {
          "name": "",
          "type": "uint256"
        }
      ],
      "name": "bounties",
      "outputs": [
        {
          "name": "issuer",
          "type": "address"
        },
        {
          "name": "fulfillmentAmount",
          "type": "uint256"
        },
        {
          "name": "balance",
          "type": "uint256"
        },
        {
          "name": "tweetText",
          "type": "string"
        },
        {
          "name": "bountyOpen",
          "type": "bool"
        }
      ],
      "payable": false,
      "stateMutability": "view",
      "type": "function"
    },
    {
      "constant": false,
      "inputs": [
        {
          "name": "newOwner",
          "type": "address"
        }
      ],
      "name": "transferOwnership",
      "outputs": [],
      "payable": false,
      "stateMutability": "nonpayable",
      "type": "function"
    },
    {
      "constant": false,
      "inputs": [
        {
          "name": "_recipient",
          "type": "address"
        }
      ],
      "name": "destroyAndSend",
      "outputs": [],
      "payable": false,
      "stateMutability": "nonpayable",
      "type": "function"
    },
    {
      "inputs": [
        {
          "name": "addr",
          "type": "address"
        }
      ],
      "payable": false,
      "stateMutability": "nonpayable",
      "type": "constructor"
    },
    {
      "anonymous": false,
      "inputs": [],
      "name": "Pause",
      "type": "event"
    },
    {
      "anonymous": false,
      "inputs": [],
      "name": "Unpause",
      "type": "event"
    },
    {
      "anonymous": false,
      "inputs": [
        {
          "indexed": true,
          "name": "previousOwner",
          "type": "address"
        },
        {
          "indexed": true,
          "name": "newOwner",
          "type": "address"
        }
      ],
      "name": "OwnershipTransferred",
      "type": "event"
    },
    {
      "constant": false,
      "inputs": [
        {
          "name": "addr",
          "type": "address"
        }
      ],
      "name": "setOracle",
      "outputs": [],
      "payable": false,
      "stateMutability": "nonpayable",
      "type": "function"
    },
    {
      "constant": false,
      "inputs": [
        {
          "name": "_fulfillmentAmount",
          "type": "uint256"
        },
        {
          "name": "_postId",
          "type": "string"
        }
      ],
      "name": "createBounty",
      "outputs": [
        {
          "name": "",
          "type": "uint256"
        }
      ],
      "payable": true,
      "stateMutability": "payable",
      "type": "function"
    },
    {
      "constant": false,
      "inputs": [
        {
          "name": "_bountyId",
          "type": "uint256"
        }
      ],
      "name": "contribute",
      "outputs": [],
      "payable": true,
      "stateMutability": "payable",
      "type": "function"
    },
    {
      "constant": false,
      "inputs": [
        {
          "name": "_bountyId",
          "type": "uint256"
        },
        {
          "name": "_postId",
          "type": "string"
        }
      ],
      "name": "fulfillBounty",
      "outputs": [
        {
          "name": "",
          "type": "bool"
        }
      ],
      "payable": false,
      "stateMutability": "nonpayable",
      "type": "function"
    },
    {
      "constant": false,
      "inputs": [
        {
          "name": "_bountyId",
          "type": "uint256"
        },
        {
          "name": "_newFulfillmentAmount",
          "type": "uint256"
        }
      ],
      "name": "changePayout",
      "outputs": [],
      "payable": true,
      "stateMutability": "payable",
      "type": "function"
    },
    {
      "constant": false,
      "inputs": [
        {
          "name": "_bountyId",
          "type": "uint256"
        }
      ],
      "name": "closeBounty",
      "outputs": [],
      "payable": false,
      "stateMutability": "nonpayable",
      "type": "function"
    },
    {
      "constant": true,
      "inputs": [
        {
          "name": "_bountyId",
          "type": "uint256"
        }
      ],
      "name": "getBounty",
      "outputs": [
        {
          "name": "",
          "type": "address"
        },
        {
          "name": "",
          "type": "uint256"
        },
        {
          "name": "",
          "type": "uint256"
        },
        {
          "name": "",
          "type": "string"
        },
        {
          "name": "",
          "type": "bool"
        }
      ],
      "payable": false,
      "stateMutability": "view",
      "type": "function"
    },
    {
      "constant": true,
      "inputs": [
        {
          "name": "_bountyId",
          "type": "uint256"
        },
        {
          "name": "_postId",
          "type": "string"
        }
      ],
      "name": "checkBountyTweetsUsed",
      "outputs": [
        {
          "name": "",
          "type": "bool"
        }
      ],
      "payable": false,
      "stateMutability": "view",
      "type": "function"
    },
    {
      "constant": true,
      "inputs": [],
      "name": "getNumBounties",
      "outputs": [
        {
          "name": "",
          "type": "uint256"
        }
      ],
      "payable": false,
      "stateMutability": "view",
      "type": "function"
    },
    {
      "constant": true,
      "inputs": [
        {
          "name": "_bountyId",
          "type": "uint256"
        }
      ],
      "name": "getNumFulfillments",
      "outputs": [
        {
          "name": "",
          "type": "uint256"
        }
      ],
      "payable": false,
      "stateMutability": "view",
      "type": "function"
    },
    {
      "constant": true,
      "inputs": [
        {
          "name": "_bountyId",
          "type": "uint256"
        },
        {
          "name": "_fulfillmentId",
          "type": "uint256"
        }
      ],
      "name": "getFulfillment",
      "outputs": [
        {
          "name": "",
          "type": "uint256"
        },
        {
          "name": "",
          "type": "address"
        },
        {
          "name": "",
          "type": "string"
        }
      ],
      "payable": false,
      "stateMutability": "view",
      "type": "function"
    },
    {
      "constant": true,
      "inputs": [
        {
          "name": "_postId",
          "type": "string"
        }
      ],
      "name": "getTweetText",
      "outputs": [
        {
          "name": "",
          "type": "string"
        }
      ],
      "payable": false,
      "stateMutability": "view",
      "type": "function"
    },
    {
      "constant": false,
      "inputs": [
        {
          "name": "_postId",
          "type": "string"
        }
      ],
      "name": "oraclizeTweet",
      "outputs": [],
      "payable": true,
      "stateMutability": "payable",
      "type": "function"
    }
  ],
  "bytecode": "0x608060405260008060146101000a81548160ff02191690831515021790555034801561002a57600080fd5b50604051602080620026a683398101806040528101908080519060200190929190505050336000806101000a81548173ffffffffffffffffffffffffffffffffffffffff021916908373ffffffffffffffffffffffffffffffffffffffff16021790555033600160006101000a81548173ffffffffffffffffffffffffffffffffffffffff021916908373ffffffffffffffffffffffffffffffffffffffff1602179055506100e7816100ed640100000000026401000000009004565b5061018c565b6000809054906101000a900473ffffffffffffffffffffffffffffffffffffffff1673ffffffffffffffffffffffffffffffffffffffff163373ffffffffffffffffffffffffffffffffffffffff1614151561014857600080fd5b80600460006101000a81548173ffffffffffffffffffffffffffffffffffffffff021916908373ffffffffffffffffffffffffffffffffffffffff16021790555050565b61250a806200019c6000396000f30060806040526004361061011d576000357c0100000000000000000000000000000000000000000000000000000000900463ffffffff1680631e688c14146101225780633278ba2f146101ad5780633a6f38b2146101d85780633f4ba83a146102525780635c975abb1461026957806368b63d28146102985780637adbf9731461032357806383197ef0146103665780638456cb591461037d5780638da5cb5b14610394578063b94b0a3a146103eb578063b988997f146104d5578063c1cbbca714610502578063c7fcf3a814610522578063cf2e29141461054c578063dc2f87441461062e578063ee8c4bbf14610720578063f2fde38b14610812578063f5074f4114610855578063fae571ca14610898578063fbe334f8146108f4575b600080fd5b34801561012e57600080fd5b5061019360048036038101908080359060200190929190803590602001908201803590602001908080601f0160208091040260200160405190810160405280939291908181526020018383808284378201915050505050509192919290505050610935565b604051808215151515815260200191505060405180910390f35b3480156101b957600080fd5b506101c2610fe8565b6040518082815260200191505060405180910390f35b61023c60048036038101908080359060200190929190803590602001908201803590602001908080601f0160208091040260200160405190810160405280939291908181526020018383808284378201915050505050509192919290505050610ff5565b6040518082815260200191505060405180910390f35b34801561025e57600080fd5b5061026761138f565b005b34801561027557600080fd5b5061027e61144d565b604051808215151515815260200191505060405180910390f35b3480156102a457600080fd5b5061030960048036038101908080359060200190929190803590602001908201803590602001908080601f0160208091040260200160405190810160405280939291908181526020018383808284378201915050505050509192919290505050611460565b604051808215151515815260200191505060405180910390f35b34801561032f57600080fd5b50610364600480360381019080803573ffffffffffffffffffffffffffffffffffffffff169060200190929190505050611594565b005b34801561037257600080fd5b5061037b611633565b005b34801561038957600080fd5b506103926116c8565b005b3480156103a057600080fd5b506103a9611788565b604051808273ffffffffffffffffffffffffffffffffffffffff1673ffffffffffffffffffffffffffffffffffffffff16815260200191505060405180910390f35b3480156103f757600080fd5b5061042060048036038101908080359060200190929190803590602001909291905050506117ae565b604051808481526020018373ffffffffffffffffffffffffffffffffffffffff1673ffffffffffffffffffffffffffffffffffffffff16815260200180602001828103825283818151815260200191508051906020019080838360005b8381101561049857808201518184015260208101905061047d565b50505050905090810190601f1680156104c55780820380516001836020036101000a031916815260200191505b5094505050505060405180910390f35b3480156104e157600080fd5b506105006004803603810190808035906020019092919050505061194e565b005b61052060048036038101908080359060200190929190505050611b13565b005b61054a6004803603810190808035906020019092919080359060200190929190505050611bb7565b005b34801561055857600080fd5b506105b3600480360381019080803590602001908201803590602001908080601f0160208091040260200160405190810160405280939291908181526020018383808284378201915050505050509192919290505050611cea565b6040518080602001828103825283818151815260200191508051906020019080838360005b838110156105f35780820151818401526020810190506105d8565b50505050905090810190601f1680156106205780820380516001836020036101000a031916815260200191505b509250505060405180910390f35b34801561063a57600080fd5b5061065960048036038101908080359060200190929190505050611e7a565b604051808673ffffffffffffffffffffffffffffffffffffffff1673ffffffffffffffffffffffffffffffffffffffff1681526020018581526020018481526020018060200183151515158152602001828103825284818151815260200191508051906020019080838360005b838110156106e15780820151818401526020810190506106c6565b50505050905090810190601f16801561070e5780820380516001836020036101000a031916815260200191505b50965050505050505060405180910390f35b34801561072c57600080fd5b5061074b60048036038101908080359060200190929190505050611f84565b604051808673ffffffffffffffffffffffffffffffffffffffff1673ffffffffffffffffffffffffffffffffffffffff1681526020018581526020018481526020018060200183151515158152602001828103825284818151815260200191508051906020019080838360005b838110156107d35780820151818401526020810190506107b8565b50505050905090810190601f1680156108005780820380516001836020036101000a031916815260200191505b50965050505050505060405180910390f35b34801561081e57600080fd5b50610853600480360381019080803573ffffffffffffffffffffffffffffffffffffffff169060200190929190505050612122565b005b34801561086157600080fd5b50610896600480360381019080803573ffffffffffffffffffffffffffffffffffffffff169060200190929190505050612277565b005b6108f2600480360381019080803590602001908201803590602001908080601f01602080910402602001604051908101604052809392919081815260200183838082843782019150505050505091929192905050506122eb565b005b34801561090057600080fd5b5061091f60048036038101908080359060200190929190505050612419565b6040518082815260200191505060405180910390f35b60006060600060149054906101000a900460ff1615151561095557600080fd5b836002805490508110151561096957600080fd5b846001151560028281548110151561097d57fe5b906000526020600020906006020160040160009054906101000a900460ff1615151415156109aa57600080fd5b856002818154811015156109ba57fe5b9060005260206000209060060201600101546002828154811015156109db57fe5b906000526020600020906006020160020154101515156109fa57600080fd5b610a0386611cea565b935060011515600288815481101515610a1857fe5b90600052602060002090600602016005016000886040516020018082805190602001908083835b602083101515610a645780518252602082019150602081019050602083039250610a3f565b6001836020036101000a0380198251168184511680821785525050505050509050019150506040516020818303038152906040526040518082805190602001908083835b602083101515610acd5780518252602082019150602081019050602083039250610aa8565b6001836020036101000a03801982511681845116808217855250505050505090500191505060405180910390206000191660001916815260200190815260200160002060009054906101000a900460ff16151514151515610b2d57600080fd5b836040516020018082805190602001908083835b602083101515610b665780518252602082019150602081019050602083039250610b41565b6001836020036101000a0380198251168184511680821785525050505050509050019150506040516020818303038152906040526040518082805190602001908083835b602083101515610bcf5780518252602082019150602081019050602083039250610baa565b6001836020036101000a038019825116818451168082178552505050505050905001915050604051809103902060001916600288815481101515610c0f57fe5b90600052602060002090600602016003016040516020018082805460018160011615610100020316600290048015610c7e5780601f10610c5c576101008083540402835291820191610c7e565b820191906000526020600020905b815481529060010190602001808311610c6a575b50509150506040516020818303038152906040526040518082805190602001908083835b602083101515610cc75780518252602082019150602081019050602083039250610ca2565b6001836020036101000a038019825116818451168082178552505050505050905001915050604051809103902060001916141515610d0457600080fd5b6001600288815481101515610d1557fe5b90600052602060002090600602016005016000886040516020018082805190602001908083835b602083101515610d615780518252602082019150602081019050602083039250610d3c565b6001836020036101000a0380198251168184511680821785525050505050509050019150506040516020818303038152906040526040518082805190602001908083835b602083101515610dca5780518252602082019150602081019050602083039250610da5565b6001836020036101000a03801982511681845116808217855250505050505090500191505060405180910390206000191660001916815260200190815260200160002060006101000a81548160ff0219169083151502179055506003600088815260200190815260200160002060606040519081016040528060028a815481101515610e5257fe5b90600052602060002090600602016001015481526020013373ffffffffffffffffffffffffffffffffffffffff16815260200188815250908060018154018082558091505090600182039060005260206000209060030201600090919290919091506000820151816000015560208201518160010160006101000a81548173ffffffffffffffffffffffffffffffffffffffff021916908373ffffffffffffffffffffffffffffffffffffffff1602179055506040820151816002019080519060200190610f21929190612439565b50505050600287815481101515610f3457fe5b906000526020600020906006020160010154600288815481101515610f5557fe5b9060005260206000209060060201600201600082825403925050819055503373ffffffffffffffffffffffffffffffffffffffff166108fc600289815481101515610f9c57fe5b9060005260206000209060060201600101549081150290604051600060405180830381858888f19350505050158015610fd9573d6000803e3d6000fd5b50600194505050505092915050565b6000600280549050905090565b60006060600060149054906101000a900460ff1615151561101557600080fd5b836000811415151561102657600080fd5b60028054905060016002805490500111151561104157600080fd5b8360405180600001905060405180910390206000191661106082611cea565b6040516020018082805190602001908083835b6020831015156110985780518252602082019150602081019050602083039250611073565b6001836020036101000a0380198251168184511680821785525050505050509050019150506040516020818303038152906040526040518082805190602001908083835b60208310151561110157805182526020820191506020810190506020830392506110dc565b6001836020036101000a0380198251168184511680821785525050505050509050019150506040518091039020600019161415151561113f57600080fd5b61114885611cea565b9250600260a0604051908101604052803373ffffffffffffffffffffffffffffffffffffffff168152602001888152602001348152602001858152602001600115158152509080600181540180825580915050906001820390600052602060002090600602016000909192909190915060008201518160000160006101000a81548173ffffffffffffffffffffffffffffffffffffffff021916908373ffffffffffffffffffffffffffffffffffffffff1602179055506020820151816001015560408201518160020155606082015181600301908051906020019061122f929190612439565b5060808201518160040160006101000a81548160ff0219169083151502179055505050506001600260016002805490500381548110151561126c57fe5b90600052602060002090600602016005016000876040516020018082805190602001908083835b6020831015156112b85780518252602082019150602081019050602083039250611293565b6001836020036101000a0380198251168184511680821785525050505050509050019150506040516020818303038152906040526040518082805190602001908083835b60208310151561132157805182526020820191506020810190506020830392506112fc565b6001836020036101000a03801982511681845116808217855250505050505090500191505060405180910390206000191660001916815260200190815260200160002060006101000a81548160ff021916908315150217905550600160028054905003935050505092915050565b6000809054906101000a900473ffffffffffffffffffffffffffffffffffffffff1673ffffffffffffffffffffffffffffffffffffffff163373ffffffffffffffffffffffffffffffffffffffff161415156113ea57600080fd5b600060149054906101000a900460ff16151561140557600080fd5b60008060146101000a81548160ff0219169083151502179055507f7805862f689e2f13df9f062ff482ad3ad112aca9e0847911ed832e158c525b3360405160405180910390a1565b600060149054906101000a900460ff1681565b6000826002805490508110151561147657600080fd5b60028481548110151561148557fe5b90600052602060002090600602016005016000846040516020018082805190602001908083835b6020831015156114d157805182526020820191506020810190506020830392506114ac565b6001836020036101000a0380198251168184511680821785525050505050509050019150506040516020818303038152906040526040518082805190602001908083835b60208310151561153a5780518252602082019150602081019050602083039250611515565b6001836020036101000a03801982511681845116808217855250505050505090500191505060405180910390206000191660001916815260200190815260200160002060009054906101000a900460ff1691505092915050565b6000809054906101000a900473ffffffffffffffffffffffffffffffffffffffff1673ffffffffffffffffffffffffffffffffffffffff163373ffffffffffffffffffffffffffffffffffffffff161415156115ef57600080fd5b80600460006101000a81548173ffffffffffffffffffffffffffffffffffffffff021916908373ffffffffffffffffffffffffffffffffffffffff16021790555050565b6000809054906101000a900473ffffffffffffffffffffffffffffffffffffffff1673ffffffffffffffffffffffffffffffffffffffff163373ffffffffffffffffffffffffffffffffffffffff1614151561168e57600080fd5b6000809054906101000a900473ffffffffffffffffffffffffffffffffffffffff1673ffffffffffffffffffffffffffffffffffffffff16ff5b6000809054906101000a900473ffffffffffffffffffffffffffffffffffffffff1673ffffffffffffffffffffffffffffffffffffffff163373ffffffffffffffffffffffffffffffffffffffff1614151561172357600080fd5b600060149054906101000a900460ff1615151561173f57600080fd5b6001600060146101000a81548160ff0219169083151502179055507f6985a02210a168e66602d3235cb6db0e70f92b3ba4d376a33c0f3d9434bff62560405160405180910390a1565b600160009054906101000a900473ffffffffffffffffffffffffffffffffffffffff1681565b600080606084600280549050811015156117c757600080fd5b85856003600083815260200190815260200160002080549050811015156117ed57600080fd5b600360008981526020019081526020016000208781548110151561180d57fe5b906000526020600020906003020160000154600360008a81526020019081526020016000208881548110151561183f57fe5b906000526020600020906003020160010160009054906101000a900473ffffffffffffffffffffffffffffffffffffffff16600360008b81526020019081526020016000208981548110151561189157fe5b9060005260206000209060030201600201808054600181600116156101000203166002900480601f0160208091040260200160405190810160405280929190818152602001828054600181600116156101000203166002900480156119375780601f1061190c57610100808354040283529160200191611937565b820191906000526020600020905b81548152906001019060200180831161191a57829003601f168201915b505050505090509550955095505050509250925092565b60008060149054906101000a900460ff1615151561196b57600080fd5b816002805490508110151561197f57600080fd5b823373ffffffffffffffffffffffffffffffffffffffff166002828154811015156119a657fe5b906000526020600020906006020160000160009054906101000a900473ffffffffffffffffffffffffffffffffffffffff1673ffffffffffffffffffffffffffffffffffffffff161415156119fa57600080fd5b6000600285815481101515611a0b57fe5b906000526020600020906006020160040160006101000a81548160ff021916908315150217905550600284815481101515611a4257fe5b90600052602060002090600602016002015492506000600285815481101515611a6757fe5b9060005260206000209060060201600201819055506000831115611b0d57600284815481101515611a9457fe5b906000526020600020906006020160000160009054906101000a900473ffffffffffffffffffffffffffffffffffffffff1673ffffffffffffffffffffffffffffffffffffffff166108fc849081150290604051600060405180830381858888f19350505050158015611b0b573d6000803e3d6000fd5b505b50505050565b600060149054906101000a900460ff16151515611b2f57600080fd5b8060028054905081101515611b4357600080fd5b8160011515600282815481101515611b5757fe5b906000526020600020906006020160040160009054906101000a900460ff161515141515611b8457600080fd5b34600284815481101515611b9457fe5b906000526020600020906006020160020160008282540192505081905550505050565b600060149054906101000a900460ff16151515611bd357600080fd5b8160028054905081101515611be757600080fd5b823373ffffffffffffffffffffffffffffffffffffffff16600282815481101515611c0e57fe5b906000526020600020906006020160000160009054906101000a900473ffffffffffffffffffffffffffffffffffffffff1673ffffffffffffffffffffffffffffffffffffffff16141515611c6257600080fd5b34600285815481101515611c7257fe5b90600052602060002090600602016002016000828254019250508190555082600285815481101515611ca057fe5b90600052602060002090600602016002015410151515611cbf57600080fd5b82600285815481101515611ccf57fe5b90600052602060002090600602016001018190555050505050565b6060600460009054906101000a900473ffffffffffffffffffffffffffffffffffffffff1673ffffffffffffffffffffffffffffffffffffffff1663cf2e2914836040518263ffffffff167c01000000000000000000000000000000000000000000000000000000000281526004018080602001828103825283818151815260200191508051906020019080838360005b83811015611d96578082015181840152602081019050611d7b565b50505050905090810190601f168015611dc35780820380516001836020036101000a031916815260200191505b5092505050600060405180830381600087803b158015611de257600080fd5b505af1158015611df6573d6000803e3d6000fd5b505050506040513d6000823e3d601f19601f820116820180604052506020811015611e2057600080fd5b810190808051640100000000811115611e3857600080fd5b82810190506020810184811115611e4e57600080fd5b8151856001820283011164010000000082111715611e6b57600080fd5b50509291905050509050919050565b600281815481101515611e8957fe5b90600052602060002090600602016000915090508060000160009054906101000a900473ffffffffffffffffffffffffffffffffffffffff1690806001015490806002015490806003018054600181600116156101000203166002900480601f016020809104026020016040519081016040528092919081815260200182805460018160011615610100020316600290048015611f675780601f10611f3c57610100808354040283529160200191611f67565b820191906000526020600020905b815481529060010190602001808311611f4a57829003601f168201915b5050505050908060040160009054906101000a900460ff16905085565b6000806000606060008560028054905081101515611fa157600080fd5b600287815481101515611fb057fe5b906000526020600020906006020160000160009054906101000a900473ffffffffffffffffffffffffffffffffffffffff16600288815481101515611ff157fe5b90600052602060002090600602016001015460028981548110151561201257fe5b90600052602060002090600602016002015460028a81548110151561203357fe5b906000526020600020906006020160030160028b81548110151561205357fe5b906000526020600020906006020160040160009054906101000a900460ff16818054600181600116156101000203166002900480601f0160208091040260200160405190810160405280929190818152602001828054600181600116156101000203166002900480156121075780601f106120dc57610100808354040283529160200191612107565b820191906000526020600020905b8154815290600101906020018083116120ea57829003601f168201915b50505050509150955095509550955095505091939590929450565b6000809054906101000a900473ffffffffffffffffffffffffffffffffffffffff1673ffffffffffffffffffffffffffffffffffffffff163373ffffffffffffffffffffffffffffffffffffffff1614151561217d57600080fd5b600073ffffffffffffffffffffffffffffffffffffffff168173ffffffffffffffffffffffffffffffffffffffff16141515156121b957600080fd5b8073ffffffffffffffffffffffffffffffffffffffff166000809054906101000a900473ffffffffffffffffffffffffffffffffffffffff1673ffffffffffffffffffffffffffffffffffffffff167f8be0079c531659141344cd1fd0a4f28419497f9722a3daafe3b4186f6b6457e060405160405180910390a3806000806101000a81548173ffffffffffffffffffffffffffffffffffffffff021916908373ffffffffffffffffffffffffffffffffffffffff16021790555050565b6000809054906101000a900473ffffffffffffffffffffffffffffffffffffffff1673ffffffffffffffffffffffffffffffffffffffff163373ffffffffffffffffffffffffffffffffffffffff161415156122d257600080fd5b8073ffffffffffffffffffffffffffffffffffffffff16ff5b600060149054906101000a900460ff1615151561230757600080fd5b600460009054906101000a900473ffffffffffffffffffffffffffffffffffffffff1673ffffffffffffffffffffffffffffffffffffffff1663fae571ca34836040518363ffffffff167c01000000000000000000000000000000000000000000000000000000000281526004018080602001828103825283818151815260200191508051906020019080838360005b838110156123b2578082015181840152602081019050612397565b50505050905090810190601f1680156123df5780820380516001836020036101000a031916815260200191505b50925050506000604051808303818588803b1580156123fd57600080fd5b505af1158015612411573d6000803e3d6000fd5b505050505050565b600060036000838152602001908152602001600020805490509050919050565b828054600181600116156101000203166002900490600052602060002090601f016020900481019282601f1061247a57805160ff19168380011785556124a8565b828001600101855582156124a8579182015b828111156124a757825182559160200191906001019061248c565b5b5090506124b591906124b9565b5090565b6124db91905b808211156124d75760008160009055506001016124bf565b5090565b905600a165627a7a72305820a0a5fd2bc02c1ad2a4d0741276832627903bf0ca502c3f0f547b8557bde3e5480029",
  "source": "pragma solidity ^0.4.23;\r\n\r\nimport \"installed_contracts/zeppelin/contracts/ownership/Ownable.sol\";\r\nimport \"installed_contracts/zeppelin/contracts/lifecycle/Pausable.sol\";\r\nimport \"installed_contracts/zeppelin/contracts/lifecycle/Destructible.sol\";\r\n\r\ncontract TwitterOracle {\r\n    function getTweetText(string _postId) public view returns(string);\r\n    function oraclizeTweet(string _postId) public payable;\r\n}\r\n\r\ncontract BirdBounty is Ownable, Pausable, Destructible {\r\n    \r\n    address public owner;\r\n\r\n    Bounty[] public bounties;\r\n    mapping(uint => Fulfillment[]) fulfillments;\r\n\r\n    TwitterOracle oracleContract;\r\n\r\n    struct Bounty {\r\n        address issuer;\r\n        uint256 fulfillmentAmount;\r\n        uint256 balance;\r\n        string tweetText;\r\n        bool bountyOpen;\r\n        mapping (bytes32 => bool) tweetsUsed;\r\n    }\r\n\r\n    struct Fulfillment {\r\n        uint256 fulfillmentAmount;\r\n        address fulfiller;\r\n        string tweetId;\r\n    }\r\n\r\n    modifier amountIsNotZero(uint256 _amount) {\r\n        require (_amount != 0);\r\n        _;\r\n    }\r\n\r\n    modifier validateNotTooManyBounties() {\r\n        require((bounties.length + 1) > bounties.length);\r\n        _;\r\n    }\r\n\r\n    modifier validateBountyArrayIndex(uint _bountyId){\r\n        require(_bountyId < bounties.length);\r\n        _;\r\n    }\r\n\r\n    modifier isOpen(uint _bountyId) {\r\n        require(bounties[_bountyId].bountyOpen == true);\r\n        _;\r\n    }\r\n\r\n    modifier onlyIssuer(uint _bountyId) {\r\n        require(bounties[_bountyId].issuer == msg.sender);\r\n        _;\r\n    }\r\n    \r\n    modifier enoughFundsToPay(uint _bountyId) {\r\n        require(bounties[_bountyId].balance >= bounties[_bountyId].fulfillmentAmount);\r\n        _;\r\n    }\r\n\r\n    modifier validateFulfillmentArrayIndex(uint _bountyId, uint _index) {\r\n        require(_index < fulfillments[_bountyId].length);\r\n        _;\r\n    }\r\n\r\n    modifier tweetTextNotEmpty(string _postId) {\r\n        require(keccak256(abi.encodePacked(getTweetText(_postId))) != keccak256(\"\"));\r\n        _;\r\n    }\r\n\r\n    constructor(address addr)\r\n    public\r\n    {\r\n        owner = msg.sender;\r\n        setOracle(addr);\r\n    }\r\n\r\n    function setOracle(address addr)\r\n    public\r\n    onlyOwner\r\n    {\r\n        oracleContract = TwitterOracle(addr);\r\n    }\r\n\r\n    function createBounty(\r\n        uint256 _fulfillmentAmount,\r\n        string _postId\r\n    )\r\n    public\r\n    payable\r\n    whenNotPaused\r\n    amountIsNotZero(_fulfillmentAmount)\r\n    validateNotTooManyBounties\r\n    tweetTextNotEmpty(_postId)\r\n    returns (uint)\r\n    {\r\n        string memory postText = getTweetText(_postId);\r\n        bounties.push(Bounty(msg.sender, _fulfillmentAmount, msg.value, postText, true));\r\n        bounties[bounties.length - 1].tweetsUsed[keccak256(abi.encodePacked(_postId))] = true;\r\n        return (bounties.length - 1);\r\n    }\r\n\r\n    function contribute (uint _bountyId)\r\n    public\r\n    payable\r\n    whenNotPaused\r\n    validateBountyArrayIndex(_bountyId)\r\n    isOpen(_bountyId)\r\n    {\r\n        bounties[_bountyId].balance += msg.value;\r\n    }\r\n\r\n    function fulfillBounty(uint _bountyId, string _postId)\r\n    public\r\n    whenNotPaused\r\n    validateBountyArrayIndex(_bountyId)\r\n    isOpen(_bountyId)\r\n    enoughFundsToPay(_bountyId)\r\n    returns (bool)\r\n    {\r\n        string memory postText = getTweetText(_postId);\r\n        require(bounties[_bountyId].tweetsUsed[keccak256(abi.encodePacked(_postId))] != true);\r\n        require(keccak256(abi.encodePacked(bounties[_bountyId].tweetText)) == keccak256(abi.encodePacked(postText)));\r\n        bounties[_bountyId].tweetsUsed[keccak256(abi.encodePacked(_postId))] = true;\r\n        fulfillments[_bountyId].push(Fulfillment(bounties[_bountyId].fulfillmentAmount, msg.sender, _postId));\r\n        bounties[_bountyId].balance -= bounties[_bountyId].fulfillmentAmount;\r\n        msg.sender.transfer(bounties[_bountyId].fulfillmentAmount);\r\n        return true;\r\n    }\r\n\r\n    function changePayout(uint _bountyId, uint _newFulfillmentAmount)\r\n    public\r\n    payable\r\n    whenNotPaused\r\n    validateBountyArrayIndex(_bountyId)\r\n    onlyIssuer(_bountyId)\r\n    {\r\n        bounties[_bountyId].balance += msg.value;\r\n        require(bounties[_bountyId].balance >= _newFulfillmentAmount);\r\n        bounties[_bountyId].fulfillmentAmount = _newFulfillmentAmount;\r\n    }\r\n\r\n    function closeBounty(uint _bountyId)\r\n    public\r\n    whenNotPaused\r\n    validateBountyArrayIndex(_bountyId)\r\n    onlyIssuer(_bountyId)\r\n    {\r\n        bounties[_bountyId].bountyOpen = false;\r\n        uint tempBalance = bounties[_bountyId].balance;\r\n        bounties[_bountyId].balance = 0;\r\n        if (tempBalance > 0) {\r\n            bounties[_bountyId].issuer.transfer(tempBalance);\r\n        }\r\n    }\r\n\r\n    function getBounty(uint _bountyId)\r\n    public\r\n    view\r\n    validateBountyArrayIndex(_bountyId)\r\n    returns (address, uint, uint, string, bool)\r\n    {\r\n        return (\r\n            bounties[_bountyId].issuer,\r\n            bounties[_bountyId].fulfillmentAmount,\r\n            bounties[_bountyId].balance,\r\n            bounties[_bountyId].tweetText,\r\n            bounties[_bountyId].bountyOpen\r\n        );\r\n    }\r\n\r\n    function checkBountyTweetsUsed(uint _bountyId, string _postId)\r\n    public\r\n    view\r\n    validateBountyArrayIndex(_bountyId)\r\n    returns (bool)\r\n    {\r\n        return (bounties[_bountyId].tweetsUsed[keccak256(abi.encodePacked(_postId))]);\r\n    }\r\n\r\n    function getNumBounties()\r\n    public\r\n    view\r\n    returns (uint)\r\n    {\r\n        return bounties.length;\r\n    }\r\n\r\n    function getNumFulfillments(uint _bountyId)\r\n    public\r\n    view\r\n    returns (uint)\r\n    {\r\n        return fulfillments[_bountyId].length;\r\n    }\r\n\r\n    function getFulfillment(uint _bountyId, uint _fulfillmentId)\r\n    public\r\n    view\r\n    validateBountyArrayIndex(_bountyId)\r\n    validateFulfillmentArrayIndex(_bountyId, _fulfillmentId)\r\n    returns (uint256, address, string)\r\n    {\r\n        return (\r\n            fulfillments[_bountyId][_fulfillmentId].fulfillmentAmount,\r\n            fulfillments[_bountyId][_fulfillmentId].fulfiller,\r\n            fulfillments[_bountyId][_fulfillmentId].tweetId\r\n        );\r\n    }\r\n\r\n    function transitionToState(uint _bountyId, bool _state)\r\n    internal\r\n    whenNotPaused\r\n    {\r\n        bounties[_bountyId].bountyOpen = _state;\r\n    }\r\n\r\n    function getTweetText(string _postId)\r\n    public\r\n    view\r\n    returns(string)\r\n    {\r\n        return oracleContract.getTweetText(_postId);\r\n    }\r\n\r\n    function oraclizeTweet(string _postId)\r\n    public\r\n    payable\r\n    whenNotPaused\r\n    {\r\n        oracleContract.oraclizeTweet.value(msg.value)(_postId);\r\n    }\r\n}",
  "sourcePath": "C:\\Users\\shtabriz\\Documents\\GitHub\\ConsenSys-Academy-2018-Developer-Program-Final-Project\\birdbounty\\contracts\\BirdBounty.sol",
  "compiler": {
    "name": "solc",
    "version": "0.4.24+commit.e67f0147.Emscripten.clang"
  },
  "schemaVersion": "2.0.1",
  "updatedAt": "2018-08-16T00:21:26.276Z"
}