{
  "contractName": "BirdBounty",
  "abi": [
    {
      "constant": false,
      "inputs": [],
      "name": "unpause",
      "outputs": [],
      "payable": false,
      "stateMutability": "nonpayable",
      "type": "function"
    },
    {
      "constant": true,
      "inputs": [],
      "name": "paused",
      "outputs": [
        {
          "name": "",
          "type": "bool"
        }
      ],
      "payable": false,
      "stateMutability": "view",
      "type": "function"
    },
    {
      "constant": false,
      "inputs": [],
      "name": "destroy",
      "outputs": [],
      "payable": false,
      "stateMutability": "nonpayable",
      "type": "function"
    },
    {
      "constant": false,
      "inputs": [],
      "name": "pause",
      "outputs": [],
      "payable": false,
      "stateMutability": "nonpayable",
      "type": "function"
    },
    {
      "constant": true,
      "inputs": [],
      "name": "owner",
      "outputs": [
        {
          "name": "",
          "type": "address"
        }
      ],
      "payable": false,
      "stateMutability": "view",
      "type": "function"
    },
    {
      "constant": true,
      "inputs": [
        {
          "name": "",
          "type": "uint256"
        }
      ],
      "name": "bounties",
      "outputs": [
        {
          "name": "issuer",
          "type": "address"
        },
        {
          "name": "fulfillmentAmount",
          "type": "uint256"
        },
        {
          "name": "balance",
          "type": "uint256"
        },
        {
          "name": "data",
          "type": "string"
        },
        {
          "name": "bountyOpen",
          "type": "bool"
        }
      ],
      "payable": false,
      "stateMutability": "view",
      "type": "function"
    },
    {
      "constant": false,
      "inputs": [
        {
          "name": "newOwner",
          "type": "address"
        }
      ],
      "name": "transferOwnership",
      "outputs": [],
      "payable": false,
      "stateMutability": "nonpayable",
      "type": "function"
    },
    {
      "constant": false,
      "inputs": [
        {
          "name": "_recipient",
          "type": "address"
        }
      ],
      "name": "destroyAndSend",
      "outputs": [],
      "payable": false,
      "stateMutability": "nonpayable",
      "type": "function"
    },
    {
      "inputs": [],
      "payable": false,
      "stateMutability": "nonpayable",
      "type": "constructor"
    },
    {
      "anonymous": false,
      "inputs": [],
      "name": "Pause",
      "type": "event"
    },
    {
      "anonymous": false,
      "inputs": [],
      "name": "Unpause",
      "type": "event"
    },
    {
      "anonymous": false,
      "inputs": [
        {
          "indexed": true,
          "name": "previousOwner",
          "type": "address"
        },
        {
          "indexed": true,
          "name": "newOwner",
          "type": "address"
        }
      ],
      "name": "OwnershipTransferred",
      "type": "event"
    },
    {
      "constant": false,
      "inputs": [
        {
          "name": "addr",
          "type": "address"
        }
      ],
      "name": "setOracle",
      "outputs": [],
      "payable": false,
      "stateMutability": "nonpayable",
      "type": "function"
    },
    {
      "constant": false,
      "inputs": [
        {
          "name": "_fulfillmentAmount",
          "type": "uint256"
        },
        {
          "name": "_postId",
          "type": "string"
        }
      ],
      "name": "createBounty",
      "outputs": [
        {
          "name": "",
          "type": "uint256"
        }
      ],
      "payable": true,
      "stateMutability": "payable",
      "type": "function"
    },
    {
      "constant": false,
      "inputs": [
        {
          "name": "_bountyId",
          "type": "uint256"
        }
      ],
      "name": "contribute",
      "outputs": [],
      "payable": true,
      "stateMutability": "payable",
      "type": "function"
    },
    {
      "constant": false,
      "inputs": [
        {
          "name": "_bountyId",
          "type": "uint256"
        },
        {
          "name": "_postId",
          "type": "string"
        }
      ],
      "name": "fulfillBounty",
      "outputs": [],
      "payable": false,
      "stateMutability": "nonpayable",
      "type": "function"
    },
    {
      "constant": false,
      "inputs": [
        {
          "name": "_bountyId",
          "type": "uint256"
        },
        {
          "name": "_fulfillmentId",
          "type": "uint256"
        }
      ],
      "name": "acceptFulfillment",
      "outputs": [],
      "payable": false,
      "stateMutability": "nonpayable",
      "type": "function"
    },
    {
      "constant": false,
      "inputs": [
        {
          "name": "_bountyId",
          "type": "uint256"
        },
        {
          "name": "_newFulfillmentAmount",
          "type": "uint256"
        }
      ],
      "name": "increasePayout",
      "outputs": [],
      "payable": true,
      "stateMutability": "payable",
      "type": "function"
    },
    {
      "constant": false,
      "inputs": [
        {
          "name": "_bountyId",
          "type": "uint256"
        }
      ],
      "name": "closeBounty",
      "outputs": [],
      "payable": false,
      "stateMutability": "nonpayable",
      "type": "function"
    },
    {
      "constant": true,
      "inputs": [
        {
          "name": "_bountyId",
          "type": "uint256"
        }
      ],
      "name": "getBounty",
      "outputs": [
        {
          "name": "",
          "type": "address"
        },
        {
          "name": "",
          "type": "uint256"
        },
        {
          "name": "",
          "type": "uint256"
        },
        {
          "name": "",
          "type": "string"
        },
        {
          "name": "",
          "type": "bool"
        }
      ],
      "payable": false,
      "stateMutability": "view",
      "type": "function"
    },
    {
      "constant": true,
      "inputs": [
        {
          "name": "_bountyId",
          "type": "uint256"
        },
        {
          "name": "_postId",
          "type": "string"
        }
      ],
      "name": "checkBountyTweetsUsed",
      "outputs": [
        {
          "name": "",
          "type": "bool"
        }
      ],
      "payable": false,
      "stateMutability": "view",
      "type": "function"
    },
    {
      "constant": true,
      "inputs": [],
      "name": "getNumBounties",
      "outputs": [
        {
          "name": "",
          "type": "uint256"
        }
      ],
      "payable": false,
      "stateMutability": "view",
      "type": "function"
    },
    {
      "constant": true,
      "inputs": [
        {
          "name": "_bountyId",
          "type": "uint256"
        }
      ],
      "name": "getNumFulfillments",
      "outputs": [
        {
          "name": "",
          "type": "uint256"
        }
      ],
      "payable": false,
      "stateMutability": "view",
      "type": "function"
    },
    {
      "constant": true,
      "inputs": [
        {
          "name": "_postId",
          "type": "string"
        }
      ],
      "name": "getTweetText",
      "outputs": [
        {
          "name": "",
          "type": "string"
        }
      ],
      "payable": false,
      "stateMutability": "view",
      "type": "function"
    },
    {
      "constant": false,
      "inputs": [
        {
          "name": "_postId",
          "type": "string"
        }
      ],
      "name": "oraclizeTweet",
      "outputs": [],
      "payable": true,
      "stateMutability": "payable",
      "type": "function"
    }
  ],
  "bytecode": "0x608060405260008060146101000a81548160ff02191690831515021790555034801561002a57600080fd5b50336000806101000a81548173ffffffffffffffffffffffffffffffffffffffff021916908373ffffffffffffffffffffffffffffffffffffffff16021790555033600160006101000a81548173ffffffffffffffffffffffffffffffffffffffff021916908373ffffffffffffffffffffffffffffffffffffffff160217905550612352806100bb6000396000f30060806040526004361061011d576000357c0100000000000000000000000000000000000000000000000000000000900463ffffffff1680631e688c14146101225780633278ba2f146101955780633a6f38b2146101c05780633e56155d1461023a5780633f4ba83a146102645780635c975abb1461027b57806368b63d28146102aa5780637adbf9731461033557806383197ef0146103785780638456cb591461038f5780638da5cb5b146103a6578063b988997f146103fd578063c1cbbca71461042a578063cf2e29141461044a578063d95834971461052c578063dc2f874414610563578063ee8c4bbf14610655578063f2fde38b14610747578063f5074f411461078a578063fae571ca146107cd578063fbe334f814610829575b600080fd5b34801561012e57600080fd5b5061019360048036038101908080359060200190929190803590602001908201803590602001908080601f016020809104026020016040519081016040528093929190818152602001838380828437820191505050505050919291929050505061086a565b005b3480156101a157600080fd5b506101aa610e08565b6040518082815260200191505060405180910390f35b61022460048036038101908080359060200190929190803590602001908201803590602001908080601f0160208091040260200160405190810160405280939291908181526020018383808284378201915050505050509192919290505050610e15565b6040518082815260200191505060405180910390f35b61026260048036038101908080359060200190929190803590602001909291905050506110b0565b005b34801561027057600080fd5b50610279611215565b005b34801561028757600080fd5b506102906112d3565b604051808215151515815260200191505060405180910390f35b3480156102b657600080fd5b5061031b60048036038101908080359060200190929190803590602001908201803590602001908080601f01602080910402602001604051908101604052809392919081815260200183838082843782019150505050505091929192905050506112e6565b604051808215151515815260200191505060405180910390f35b34801561034157600080fd5b50610376600480360381019080803573ffffffffffffffffffffffffffffffffffffffff16906020019092919050505061141a565b005b34801561038457600080fd5b5061038d6114b9565b005b34801561039b57600080fd5b506103a461154e565b005b3480156103b257600080fd5b506103bb61160e565b604051808273ffffffffffffffffffffffffffffffffffffffff1673ffffffffffffffffffffffffffffffffffffffff16815260200191505060405180910390f35b34801561040957600080fd5b5061042860048036038101908080359060200190929190505050611634565b005b610448600480360381019080803590602001909291905050506117f9565b005b34801561045657600080fd5b506104b1600480360381019080803590602001908201803590602001908080601f016020809104026020016040519081016040528093929190818152602001838380828437820191505050505050919291929050505061189d565b6040518080602001828103825283818151815260200191508051906020019080838360005b838110156104f15780820151818401526020810190506104d6565b50505050905090810190601f16801561051e5780820380516001836020036101000a031916815260200191505b509250505060405180910390f35b34801561053857600080fd5b506105616004803603810190808035906020019092919080359060200190929190505050611a2d565b005b34801561056f57600080fd5b5061058e60048036038101908080359060200190929190505050611cc2565b604051808673ffffffffffffffffffffffffffffffffffffffff1673ffffffffffffffffffffffffffffffffffffffff1681526020018581526020018481526020018060200183151515158152602001828103825284818151815260200191508051906020019080838360005b838110156106165780820151818401526020810190506105fb565b50505050905090810190601f1680156106435780820380516001836020036101000a031916815260200191505b50965050505050505060405180910390f35b34801561066157600080fd5b5061068060048036038101908080359060200190929190505050611dcc565b604051808673ffffffffffffffffffffffffffffffffffffffff1673ffffffffffffffffffffffffffffffffffffffff1681526020018581526020018481526020018060200183151515158152602001828103825284818151815260200191508051906020019080838360005b838110156107085780820151818401526020810190506106ed565b50505050905090810190601f1680156107355780820380516001836020036101000a031916815260200191505b50965050505050505060405180910390f35b34801561075357600080fd5b50610788600480360381019080803573ffffffffffffffffffffffffffffffffffffffff169060200190929190505050611f6a565b005b34801561079657600080fd5b506107cb600480360381019080803573ffffffffffffffffffffffffffffffffffffffff1690602001909291905050506120bf565b005b610827600480360381019080803590602001908201803590602001908080601f0160208091040260200160405190810160405280939291908181526020018383808284378201915050505050509192919290505050612133565b005b34801561083557600080fd5b5061085460048036038101908080359060200190929190505050612261565b6040518082815260200191505060405180910390f35b6060600060149054906101000a900460ff1615151561088857600080fd5b826002805490508110151561089c57600080fd5b83600115156002828154811015156108b057fe5b906000526020600020906006020160040160009054906101000a900460ff1615151415156108dd57600080fd5b6108e68461189d565b9250600115156002868154811015156108fb57fe5b90600052602060002090600602016005016000866040516020018082805190602001908083835b6020831015156109475780518252602082019150602081019050602083039250610922565b6001836020036101000a0380198251168184511680821785525050505050509050019150506040516020818303038152906040526040518082805190602001908083835b6020831015156109b0578051825260208201915060208101905060208303925061098b565b6001836020036101000a03801982511681845116808217855250505050505090500191505060405180910390206000191660001916815260200190815260200160002060009054906101000a900460ff16151514151515610a1057600080fd5b826040516020018082805190602001908083835b602083101515610a495780518252602082019150602081019050602083039250610a24565b6001836020036101000a0380198251168184511680821785525050505050509050019150506040516020818303038152906040526040518082805190602001908083835b602083101515610ab25780518252602082019150602081019050602083039250610a8d565b6001836020036101000a038019825116818451168082178552505050505050905001915050604051809103902060001916600286815481101515610af257fe5b90600052602060002090600602016003016040516020018082805460018160011615610100020316600290048015610b615780601f10610b3f576101008083540402835291820191610b61565b820191906000526020600020905b815481529060010190602001808311610b4d575b50509150506040516020818303038152906040526040518082805190602001908083835b602083101515610baa5780518252602082019150602081019050602083039250610b85565b6001836020036101000a038019825116818451168082178552505050505050905001915050604051809103902060001916141515610be757600080fd5b6001600286815481101515610bf857fe5b90600052602060002090600602016005016000866040516020018082805190602001908083835b602083101515610c445780518252602082019150602081019050602083039250610c1f565b6001836020036101000a0380198251168184511680821785525050505050509050019150506040516020818303038152906040526040518082805190602001908083835b602083101515610cad5780518252602082019150602081019050602083039250610c88565b6001836020036101000a03801982511681845116808217855250505050505090500191505060405180910390206000191660001916815260200190815260200160002060006101000a81548160ff021916908315150217905550600360008681526020019081526020016000206060604051908101604052806000151581526020013373ffffffffffffffffffffffffffffffffffffffff168152602001858152509080600181540180825580915050906001820390600052602060002090600202016000909192909190915060008201518160000160006101000a81548160ff02191690831515021790555060208201518160000160016101000a81548173ffffffffffffffffffffffffffffffffffffffff021916908373ffffffffffffffffffffffffffffffffffffffff1602179055506040820151816001019080519060200190610dfd929190612281565b505050505050505050565b6000600280549050905090565b60006060600060149054906101000a900460ff16151515610e3557600080fd5b8360008114151515610e4657600080fd5b600280549050600160028054905001111515610e6157600080fd5b610e6a8461189d565b9150600260a0604051908101604052803373ffffffffffffffffffffffffffffffffffffffff168152602001878152602001348152602001848152602001600115158152509080600181540180825580915050906001820390600052602060002090600602016000909192909190915060008201518160000160006101000a81548173ffffffffffffffffffffffffffffffffffffffff021916908373ffffffffffffffffffffffffffffffffffffffff16021790555060208201518160010155604082015181600201556060820151816003019080519060200190610f51929190612281565b5060808201518160040160006101000a81548160ff02191690831515021790555050505060016002600160028054905003815481101515610f8e57fe5b90600052602060002090600602016005016000866040516020018082805190602001908083835b602083101515610fda5780518252602082019150602081019050602083039250610fb5565b6001836020036101000a0380198251168184511680821785525050505050509050019150506040516020818303038152906040526040518082805190602001908083835b602083101515611043578051825260208201915060208101905060208303925061101e565b6001836020036101000a03801982511681845116808217855250505050505090500191505060405180910390206000191660001916815260200190815260200160002060006101000a81548160ff0219169083151502179055506001600280549050039250505092915050565b600060149054906101000a900460ff161515156110cc57600080fd5b81600280549050811015156110e057600080fd5b823373ffffffffffffffffffffffffffffffffffffffff1660028281548110151561110757fe5b906000526020600020906006020160000160009054906101000a900473ffffffffffffffffffffffffffffffffffffffff1673ffffffffffffffffffffffffffffffffffffffff1614151561115b57600080fd5b83838060028381548110151561116d57fe5b90600052602060002090600602016001015410151561118b57600080fd5b3460028781548110151561119b57fe5b906000526020600020906006020160020160008282540192505081905550846002878154811015156111c957fe5b906000526020600020906006020160020154101515156111e857600080fd5b846002878154811015156111f857fe5b906000526020600020906006020160010181905550505050505050565b6000809054906101000a900473ffffffffffffffffffffffffffffffffffffffff1673ffffffffffffffffffffffffffffffffffffffff163373ffffffffffffffffffffffffffffffffffffffff1614151561127057600080fd5b600060149054906101000a900460ff16151561128b57600080fd5b60008060146101000a81548160ff0219169083151502179055507f7805862f689e2f13df9f062ff482ad3ad112aca9e0847911ed832e158c525b3360405160405180910390a1565b600060149054906101000a900460ff1681565b600082600280549050811015156112fc57600080fd5b60028481548110151561130b57fe5b90600052602060002090600602016005016000846040516020018082805190602001908083835b6020831015156113575780518252602082019150602081019050602083039250611332565b6001836020036101000a0380198251168184511680821785525050505050509050019150506040516020818303038152906040526040518082805190602001908083835b6020831015156113c0578051825260208201915060208101905060208303925061139b565b6001836020036101000a03801982511681845116808217855250505050505090500191505060405180910390206000191660001916815260200190815260200160002060009054906101000a900460ff1691505092915050565b6000809054906101000a900473ffffffffffffffffffffffffffffffffffffffff1673ffffffffffffffffffffffffffffffffffffffff163373ffffffffffffffffffffffffffffffffffffffff1614151561147557600080fd5b80600460006101000a81548173ffffffffffffffffffffffffffffffffffffffff021916908373ffffffffffffffffffffffffffffffffffffffff16021790555050565b6000809054906101000a900473ffffffffffffffffffffffffffffffffffffffff1673ffffffffffffffffffffffffffffffffffffffff163373ffffffffffffffffffffffffffffffffffffffff1614151561151457600080fd5b6000809054906101000a900473ffffffffffffffffffffffffffffffffffffffff1673ffffffffffffffffffffffffffffffffffffffff16ff5b6000809054906101000a900473ffffffffffffffffffffffffffffffffffffffff1673ffffffffffffffffffffffffffffffffffffffff163373ffffffffffffffffffffffffffffffffffffffff161415156115a957600080fd5b600060149054906101000a900460ff161515156115c557600080fd5b6001600060146101000a81548160ff0219169083151502179055507f6985a02210a168e66602d3235cb6db0e70f92b3ba4d376a33c0f3d9434bff62560405160405180910390a1565b600160009054906101000a900473ffffffffffffffffffffffffffffffffffffffff1681565b60008060149054906101000a900460ff1615151561165157600080fd5b816002805490508110151561166557600080fd5b823373ffffffffffffffffffffffffffffffffffffffff1660028281548110151561168c57fe5b906000526020600020906006020160000160009054906101000a900473ffffffffffffffffffffffffffffffffffffffff1673ffffffffffffffffffffffffffffffffffffffff161415156116e057600080fd5b60006002858154811015156116f157fe5b906000526020600020906006020160040160006101000a81548160ff02191690831515021790555060028481548110151561172857fe5b9060005260206000209060060201600201549250600060028581548110151561174d57fe5b90600052602060002090600602016002018190555060008311156117f35760028481548110151561177a57fe5b906000526020600020906006020160000160009054906101000a900473ffffffffffffffffffffffffffffffffffffffff1673ffffffffffffffffffffffffffffffffffffffff166108fc849081150290604051600060405180830381858888f193505050501580156117f1573d6000803e3d6000fd5b505b50505050565b600060149054906101000a900460ff1615151561181557600080fd5b806002805490508110151561182957600080fd5b816001151560028281548110151561183d57fe5b906000526020600020906006020160040160009054906101000a900460ff16151514151561186a57600080fd5b3460028481548110151561187a57fe5b906000526020600020906006020160020160008282540192505081905550505050565b6060600460009054906101000a900473ffffffffffffffffffffffffffffffffffffffff1673ffffffffffffffffffffffffffffffffffffffff1663cf2e2914836040518263ffffffff167c01000000000000000000000000000000000000000000000000000000000281526004018080602001828103825283818151815260200191508051906020019080838360005b8381101561194957808201518184015260208101905061192e565b50505050905090810190601f1680156119765780820380516001836020036101000a031916815260200191505b5092505050600060405180830381600087803b15801561199557600080fd5b505af11580156119a9573d6000803e3d6000fd5b505050506040513d6000823e3d601f19601f8201168201806040525060208110156119d357600080fd5b8101908080516401000000008111156119eb57600080fd5b82810190506020810184811115611a0157600080fd5b8151856001820283011164010000000082111715611a1e57600080fd5b50509291905050509050919050565b600060149054906101000a900460ff16151515611a4957600080fd5b8160028054905081101515611a5d57600080fd5b8282600360008381526020019081526020016000208054905081101515611a8357600080fd5b8460011515600282815481101515611a9757fe5b906000526020600020906006020160040160009054906101000a900460ff161515141515611ac457600080fd5b8585600015156003600084815260200190815260200160002082815481101515611aea57fe5b906000526020600020906002020160000160009054906101000a900460ff161515141515611b1757600080fd5b87600281815481101515611b2757fe5b906000526020600020906006020160010154600282815481101515611b4857fe5b90600052602060002090600602016002015410151515611b6757600080fd5b6001600360008b815260200190815260200160002089815481101515611b8957fe5b906000526020600020906002020160000160006101000a81548160ff021916908315150217905550600289815481101515611bc057fe5b90600052602060002090600602016001015460028a815481101515611be157fe5b906000526020600020906006020160020160008282540392505081905550600360008a815260200190815260200160002088815481101515611c1f57fe5b906000526020600020906002020160000160019054906101000a900473ffffffffffffffffffffffffffffffffffffffff1673ffffffffffffffffffffffffffffffffffffffff166108fc60028b815481101515611c7957fe5b9060005260206000209060060201600101549081150290604051600060405180830381858888f19350505050158015611cb6573d6000803e3d6000fd5b50505050505050505050565b600281815481101515611cd157fe5b90600052602060002090600602016000915090508060000160009054906101000a900473ffffffffffffffffffffffffffffffffffffffff1690806001015490806002015490806003018054600181600116156101000203166002900480601f016020809104026020016040519081016040528092919081815260200182805460018160011615610100020316600290048015611daf5780601f10611d8457610100808354040283529160200191611daf565b820191906000526020600020905b815481529060010190602001808311611d9257829003601f168201915b5050505050908060040160009054906101000a900460ff16905085565b6000806000606060008560028054905081101515611de957600080fd5b600287815481101515611df857fe5b906000526020600020906006020160000160009054906101000a900473ffffffffffffffffffffffffffffffffffffffff16600288815481101515611e3957fe5b906000526020600020906006020160010154600289815481101515611e5a57fe5b90600052602060002090600602016002015460028a815481101515611e7b57fe5b906000526020600020906006020160030160028b815481101515611e9b57fe5b906000526020600020906006020160040160009054906101000a900460ff16818054600181600116156101000203166002900480601f016020809104026020016040519081016040528092919081815260200182805460018160011615610100020316600290048015611f4f5780601f10611f2457610100808354040283529160200191611f4f565b820191906000526020600020905b815481529060010190602001808311611f3257829003601f168201915b50505050509150955095509550955095505091939590929450565b6000809054906101000a900473ffffffffffffffffffffffffffffffffffffffff1673ffffffffffffffffffffffffffffffffffffffff163373ffffffffffffffffffffffffffffffffffffffff16141515611fc557600080fd5b600073ffffffffffffffffffffffffffffffffffffffff168173ffffffffffffffffffffffffffffffffffffffff161415151561200157600080fd5b8073ffffffffffffffffffffffffffffffffffffffff166000809054906101000a900473ffffffffffffffffffffffffffffffffffffffff1673ffffffffffffffffffffffffffffffffffffffff167f8be0079c531659141344cd1fd0a4f28419497f9722a3daafe3b4186f6b6457e060405160405180910390a3806000806101000a81548173ffffffffffffffffffffffffffffffffffffffff021916908373ffffffffffffffffffffffffffffffffffffffff16021790555050565b6000809054906101000a900473ffffffffffffffffffffffffffffffffffffffff1673ffffffffffffffffffffffffffffffffffffffff163373ffffffffffffffffffffffffffffffffffffffff1614151561211a57600080fd5b8073ffffffffffffffffffffffffffffffffffffffff16ff5b600060149054906101000a900460ff1615151561214f57600080fd5b600460009054906101000a900473ffffffffffffffffffffffffffffffffffffffff1673ffffffffffffffffffffffffffffffffffffffff1663fae571ca34836040518363ffffffff167c01000000000000000000000000000000000000000000000000000000000281526004018080602001828103825283818151815260200191508051906020019080838360005b838110156121fa5780820151818401526020810190506121df565b50505050905090810190601f1680156122275780820380516001836020036101000a031916815260200191505b50925050506000604051808303818588803b15801561224557600080fd5b505af1158015612259573d6000803e3d6000fd5b505050505050565b600060036000838152602001908152602001600020805490509050919050565b828054600181600116156101000203166002900490600052602060002090601f016020900481019282601f106122c257805160ff19168380011785556122f0565b828001600101855582156122f0579182015b828111156122ef5782518255916020019190600101906122d4565b5b5090506122fd9190612301565b5090565b61232391905b8082111561231f576000816000905550600101612307565b5090565b905600a165627a7a72305820b8f05ee4214dd17dad4dd480763774231f2be107f724e51646b3ef20708f9d9d0029",
  "source": "pragma solidity ^0.4.23;\r\n\r\nimport \"installed_contracts/zeppelin/contracts/ownership/Ownable.sol\";\r\nimport \"installed_contracts/zeppelin/contracts/lifecycle/Pausable.sol\";\r\nimport \"installed_contracts/zeppelin/contracts/lifecycle/Destructible.sol\";\r\n\r\ncontract TwitterOracle {\r\n    function getTweetText(string _postId) public view returns(string);\r\n    function oraclizeTweet(string _postId) payable public;\r\n}\r\n\r\ncontract BirdBounty is Ownable, Pausable, Destructible {\r\n    \r\n    address public owner;\r\n\r\n    Bounty[] public bounties;\r\n\r\n    mapping(uint=>Fulfillment[]) fulfillments;\r\n\r\n    TwitterOracle oracleContract;\r\n\r\n    struct Bounty {\r\n        address issuer;\r\n        uint256 fulfillmentAmount;\r\n        uint256 balance;\r\n        string data;\r\n        bool bountyOpen;\r\n        mapping (bytes32 => bool) tweetsUsed;\r\n    }\r\n\r\n    struct Fulfillment {\r\n        bool accepted;\r\n        address fulfiller;\r\n        string data;\r\n    }\r\n\r\n\r\n    modifier amountIsNotZero(uint256 _amount) {\r\n        require (_amount != 0);\r\n        _;\r\n    }\r\n\r\n    modifier validateNotTooManyBounties() {\r\n        require((bounties.length + 1) > bounties.length);\r\n        _;\r\n    }\r\n\r\n    modifier validateBountyArrayIndex(uint _bountyId){\r\n        require(_bountyId < bounties.length);\r\n        _;\r\n    }\r\n\r\n    modifier isOpen(uint _bountyId) {\r\n        require(bounties[_bountyId].bountyOpen == true);\r\n        _;\r\n    }\r\n\r\n    modifier onlyIssuer(uint _bountyId) {\r\n        require(bounties[_bountyId].issuer == msg.sender);\r\n        _;\r\n    }\r\n\r\n    modifier newFulfillmentAmountIsIncrease(uint _bountyId, uint _newFulfillmentAmount) {\r\n        require(bounties[_bountyId].fulfillmentAmount < _newFulfillmentAmount);\r\n        _;\r\n    }\r\n\r\n    modifier fulfillmentNotYetAccepted(uint _bountyId, uint _fulfillmentId) {\r\n        require(fulfillments[_bountyId][_fulfillmentId].accepted == false);\r\n        _;\r\n    }\r\n    \r\n    modifier enoughFundsToPay(uint _bountyId) {\r\n        require(bounties[_bountyId].balance >= bounties[_bountyId].fulfillmentAmount);\r\n        _;\r\n    }\r\n\r\n    modifier validateFulfillmentArrayIndex(uint _bountyId, uint _index) {\r\n        require(_index < fulfillments[_bountyId].length);\r\n        _;\r\n    }\r\n\r\n    constructor()\r\n    public\r\n    {\r\n        owner = msg.sender;\r\n    }\r\n\r\n    function setOracle(address addr)\r\n    public\r\n    onlyOwner\r\n    {\r\n        oracleContract = TwitterOracle(addr);\r\n    }\r\n\r\n    function createBounty(\r\n        uint256 _fulfillmentAmount,\r\n        string _postId\r\n    )\r\n    public\r\n    payable\r\n    whenNotPaused\r\n    amountIsNotZero(_fulfillmentAmount)\r\n    validateNotTooManyBounties\r\n    returns (uint)\r\n    {\r\n        string memory postText = getTweetText(_postId);\r\n        bounties.push(Bounty(msg.sender, _fulfillmentAmount, msg.value, postText, true));\r\n        bounties[bounties.length - 1].tweetsUsed[keccak256(abi.encodePacked(_postId))] = true;\r\n        return (bounties.length - 1);\r\n    }\r\n\r\n    function contribute (uint _bountyId)\r\n    public\r\n    payable\r\n    whenNotPaused\r\n    validateBountyArrayIndex(_bountyId)\r\n    isOpen(_bountyId)\r\n    {\r\n        bounties[_bountyId].balance += msg.value;\r\n    }\r\n\r\n    function fulfillBounty(uint _bountyId, string _postId)\r\n    public\r\n    whenNotPaused\r\n    validateBountyArrayIndex(_bountyId)\r\n    isOpen(_bountyId)\r\n    {\r\n        string memory postText = getTweetText(_postId);\r\n        require(bounties[_bountyId].tweetsUsed[keccak256(abi.encodePacked(_postId))] != true);\r\n        require(keccak256(abi.encodePacked(bounties[_bountyId].data)) == keccak256(abi.encodePacked(postText)));\r\n        bounties[_bountyId].tweetsUsed[keccak256(abi.encodePacked(_postId))] = true;\r\n        fulfillments[_bountyId].push(Fulfillment(false, msg.sender, postText));\r\n    }\r\n\r\n    function acceptFulfillment(uint _bountyId, uint _fulfillmentId)\r\n    public\r\n    whenNotPaused\r\n    validateBountyArrayIndex(_bountyId)\r\n    validateFulfillmentArrayIndex(_bountyId, _fulfillmentId)\r\n    isOpen(_bountyId)\r\n    fulfillmentNotYetAccepted(_bountyId, _fulfillmentId)\r\n    enoughFundsToPay(_bountyId)\r\n    {\r\n        fulfillments[_bountyId][_fulfillmentId].accepted = true;\r\n        bounties[_bountyId].balance -= bounties[_bountyId].fulfillmentAmount;\r\n        fulfillments[_bountyId][_fulfillmentId].fulfiller.transfer(bounties[_bountyId].fulfillmentAmount);\r\n    }\r\n\r\n\r\n    function increasePayout(uint _bountyId, uint _newFulfillmentAmount)\r\n    public\r\n    payable\r\n    whenNotPaused\r\n    validateBountyArrayIndex(_bountyId)\r\n    onlyIssuer(_bountyId)\r\n    newFulfillmentAmountIsIncrease(_bountyId, _newFulfillmentAmount)\r\n    {\r\n        bounties[_bountyId].balance += msg.value;\r\n        require(bounties[_bountyId].balance >= _newFulfillmentAmount);\r\n        bounties[_bountyId].fulfillmentAmount = _newFulfillmentAmount;\r\n    }\r\n\r\n    function closeBounty(uint _bountyId)\r\n    public\r\n    whenNotPaused\r\n    validateBountyArrayIndex(_bountyId)\r\n    onlyIssuer(_bountyId)\r\n    {\r\n        bounties[_bountyId].bountyOpen = false;\r\n        uint tempBalance = bounties[_bountyId].balance;\r\n        bounties[_bountyId].balance = 0;\r\n        if (tempBalance > 0) {\r\n            bounties[_bountyId].issuer.transfer(tempBalance);\r\n        }\r\n    }\r\n\r\n    function getBounty(uint _bountyId)\r\n    public\r\n    view\r\n    validateBountyArrayIndex(_bountyId)\r\n    returns (address, uint, uint, string, bool)\r\n    {\r\n        return (\r\n            bounties[_bountyId].issuer,\r\n            bounties[_bountyId].fulfillmentAmount,\r\n            bounties[_bountyId].balance,\r\n            bounties[_bountyId].data,\r\n            bounties[_bountyId].bountyOpen\r\n        );\r\n    }\r\n\r\n    function checkBountyTweetsUsed(uint _bountyId, string _postId)\r\n    public\r\n    view\r\n    validateBountyArrayIndex(_bountyId)\r\n    returns (bool)\r\n    {\r\n        return (bounties[_bountyId].tweetsUsed[keccak256(abi.encodePacked(_postId))]);\r\n    }\r\n\r\n    function getNumBounties()\r\n    public\r\n    view\r\n    returns (uint)\r\n    {\r\n        return bounties.length;\r\n    }\r\n\r\n    function getNumFulfillments(uint _bountyId)\r\n    public\r\n    view\r\n    returns (uint)\r\n    {\r\n        return fulfillments[_bountyId].length;\r\n    }\r\n\r\n    function transitionToState(uint _bountyId, bool _state)\r\n    internal\r\n    whenNotPaused\r\n    {\r\n        bounties[_bountyId].bountyOpen = _state;\r\n    }\r\n\r\n    function getTweetText(string _postId)\r\n    public\r\n    view\r\n    returns(string)\r\n    {\r\n        return oracleContract.getTweetText(_postId);\r\n    }\r\n\r\n    function oraclizeTweet(string _postId)\r\n    public\r\n    payable\r\n    whenNotPaused\r\n    {\r\n        oracleContract.oraclizeTweet.value(msg.value)(_postId);\r\n    }\r\n}",
  "sourcePath": "C:\\Users\\shawn\\Documents\\GitHub\\ConsenSys-Academy-2018-Developer-Program-Final-Project\\birdbounty\\contracts\\BirdBounty.sol",
  "compiler": {
    "name": "solc",
    "version": "0.4.24+commit.e67f0147.Emscripten.clang"
  },
  "schemaVersion": "2.0.1",
  "updatedAt": "2018-08-06T08:07:07.990Z"
}