{
  "contractName": "TwitterOracle",
  "abi": [
    {
      "constant": true,
      "inputs": [
        {
          "name": "",
          "type": "bytes32"
        }
      ],
      "name": "queryToPost",
      "outputs": [
        {
          "name": "",
          "type": "string"
        }
      ],
      "payable": false,
      "stateMutability": "view",
      "type": "function"
    },
    {
      "constant": false,
      "inputs": [],
      "name": "unpause",
      "outputs": [],
      "payable": false,
      "stateMutability": "nonpayable",
      "type": "function"
    },
    {
      "constant": true,
      "inputs": [],
      "name": "paused",
      "outputs": [
        {
          "name": "",
          "type": "bool"
        }
      ],
      "payable": false,
      "stateMutability": "view",
      "type": "function"
    },
    {
      "constant": false,
      "inputs": [],
      "name": "destroy",
      "outputs": [],
      "payable": false,
      "stateMutability": "nonpayable",
      "type": "function"
    },
    {
      "constant": false,
      "inputs": [],
      "name": "pause",
      "outputs": [],
      "payable": false,
      "stateMutability": "nonpayable",
      "type": "function"
    },
    {
      "constant": true,
      "inputs": [],
      "name": "owner",
      "outputs": [
        {
          "name": "",
          "type": "address"
        }
      ],
      "payable": false,
      "stateMutability": "view",
      "type": "function"
    },
    {
      "constant": true,
      "inputs": [
        {
          "name": "",
          "type": "bytes32"
        }
      ],
      "name": "tweetTexts",
      "outputs": [
        {
          "name": "",
          "type": "string"
        }
      ],
      "payable": false,
      "stateMutability": "view",
      "type": "function"
    },
    {
      "constant": false,
      "inputs": [
        {
          "name": "newOwner",
          "type": "address"
        }
      ],
      "name": "transferOwnership",
      "outputs": [],
      "payable": false,
      "stateMutability": "nonpayable",
      "type": "function"
    },
    {
      "constant": false,
      "inputs": [
        {
          "name": "_recipient",
          "type": "address"
        }
      ],
      "name": "destroyAndSend",
      "outputs": [],
      "payable": false,
      "stateMutability": "nonpayable",
      "type": "function"
    },
    {
      "inputs": [],
      "payable": true,
      "stateMutability": "payable",
      "type": "constructor"
    },
    {
      "payable": false,
      "stateMutability": "nonpayable",
      "type": "fallback"
    },
    {
      "anonymous": false,
      "inputs": [
        {
          "indexed": false,
          "name": "description",
          "type": "string"
        }
      ],
      "name": "LogInfo",
      "type": "event"
    },
    {
      "anonymous": false,
      "inputs": [
        {
          "indexed": false,
          "name": "text",
          "type": "string"
        }
      ],
      "name": "LogTextUpdate",
      "type": "event"
    },
    {
      "anonymous": false,
      "inputs": [
        {
          "indexed": true,
          "name": "_owner",
          "type": "address"
        },
        {
          "indexed": true,
          "name": "_balance",
          "type": "uint256"
        }
      ],
      "name": "LogUpdate",
      "type": "event"
    },
    {
      "anonymous": false,
      "inputs": [],
      "name": "Pause",
      "type": "event"
    },
    {
      "anonymous": false,
      "inputs": [],
      "name": "Unpause",
      "type": "event"
    },
    {
      "anonymous": false,
      "inputs": [
        {
          "indexed": true,
          "name": "previousOwner",
          "type": "address"
        },
        {
          "indexed": true,
          "name": "newOwner",
          "type": "address"
        }
      ],
      "name": "OwnershipTransferred",
      "type": "event"
    },
    {
      "constant": false,
      "inputs": [
        {
          "name": "myid",
          "type": "bytes32"
        },
        {
          "name": "result",
          "type": "string"
        }
      ],
      "name": "__callback",
      "outputs": [],
      "payable": false,
      "stateMutability": "nonpayable",
      "type": "function"
    },
    {
      "constant": false,
      "inputs": [
        {
          "name": "id",
          "type": "bytes32"
        },
        {
          "name": "result",
          "type": "string"
        },
        {
          "name": "proof",
          "type": "bytes"
        }
      ],
      "name": "__callback",
      "outputs": [],
      "payable": false,
      "stateMutability": "nonpayable",
      "type": "function"
    },
    {
      "constant": true,
      "inputs": [],
      "name": "getBalance",
      "outputs": [
        {
          "name": "_balance",
          "type": "uint256"
        }
      ],
      "payable": false,
      "stateMutability": "view",
      "type": "function"
    },
    {
      "constant": false,
      "inputs": [
        {
          "name": "_postId",
          "type": "string"
        }
      ],
      "name": "oraclizeTweet",
      "outputs": [],
      "payable": true,
      "stateMutability": "payable",
      "type": "function"
    },
    {
      "constant": true,
      "inputs": [
        {
          "name": "_postId",
          "type": "string"
        }
      ],
      "name": "getTweetText",
      "outputs": [
        {
          "name": "",
          "type": "string"
        }
      ],
      "payable": false,
      "stateMutability": "view",
      "type": "function"
    },
    {
      "constant": true,
      "inputs": [
        {
          "name": "_queryId",
          "type": "bytes32"
        }
      ],
      "name": "getPostId",
      "outputs": [
        {
          "name": "",
          "type": "string"
        }
      ],
      "payable": false,
      "stateMutability": "view",
      "type": "function"
    }
  ],
  "bytecode": "0x608060405260008060146101000a81548160ff021916908315150217905550336000806101000a81548173ffffffffffffffffffffffffffffffffffffffff021916908373ffffffffffffffffffffffffffffffffffffffff16021790555033600660006101000a81548173ffffffffffffffffffffffffffffffffffffffff021916908373ffffffffffffffffffffffffffffffffffffffff1602179055503073ffffffffffffffffffffffffffffffffffffffff1631600660009054906101000a900473ffffffffffffffffffffffffffffffffffffffff1673ffffffffffffffffffffffffffffffffffffffff167fd176e7c6abd789c341ab22cef27aa1fbc7461f5f9d6a6e55faa0b9df32a7051460405160405180910390a3736f485c8bf6fc43ea212e93bbf8ce046c7f1cb475600160006101000a81548173ffffffffffffffffffffffffffffffffffffffff021916908373ffffffffffffffffffffffffffffffffffffffff160217905550620001d360017f01000000000000000000000000000000000000000000000000000000000000000260107f01000000000000000000000000000000000000000000000000000000000000000217620001d9640100000000026401000000009004565b62000be8565b6000600160009054906101000a900473ffffffffffffffffffffffffffffffffffffffff1673ffffffffffffffffffffffffffffffffffffffff1614806200025c575060006200025a600160009054906101000a900473ffffffffffffffffffffffffffffffffffffffff1662000591640100000000026401000000009004565b145b156200027f576200027d60006200059c640100000000026401000000009004565b505b600160009054906101000a900473ffffffffffffffffffffffffffffffffffffffff1673ffffffffffffffffffffffffffffffffffffffff166338cc48316040518163ffffffff167c0100000000000000000000000000000000000000000000000000000000028152600401602060405180830381600087803b1580156200030657600080fd5b505af11580156200031b573d6000803e3d6000fd5b505050506040513d60208110156200033257600080fd5b810190808051906020019092919050505073ffffffffffffffffffffffffffffffffffffffff16600260009054906101000a900473ffffffffffffffffffffffffffffffffffffffff1673ffffffffffffffffffffffffffffffffffffffff161415156200049f57600160009054906101000a900473ffffffffffffffffffffffffffffffffffffffff1673ffffffffffffffffffffffffffffffffffffffff166338cc48316040518163ffffffff167c0100000000000000000000000000000000000000000000000000000000028152600401602060405180830381600087803b1580156200042157600080fd5b505af115801562000436573d6000803e3d6000fd5b505050506040513d60208110156200044d57600080fd5b8101908080519060200190929190505050600260006101000a81548173ffffffffffffffffffffffffffffffffffffffff021916908373ffffffffffffffffffffffffffffffffffffffff1602179055505b600260009054906101000a900473ffffffffffffffffffffffffffffffffffffffff1673ffffffffffffffffffffffffffffffffffffffff1663688dcfd7826040518263ffffffff167c010000000000000000000000000000000000000000000000000000000002815260040180827effffffffffffffffffffffffffffffffffffffffffffffffffffffffffffff19167effffffffffffffffffffffffffffffffffffffffffffffffffffffffffffff19168152602001915050600060405180830381600087803b1580156200057557600080fd5b505af11580156200058a573d6000803e3d6000fd5b5050505050565b6000813b9050919050565b6000620005b7620005be640100000000026401000000009004565b9050919050565b600080620005ef731d3b2638a7cc9f2cb3d298a3da7a90b67e5506ed62000591640100000000026401000000009004565b1115620006a457731d3b2638a7cc9f2cb3d298a3da7a90b67e5506ed600160006101000a81548173ffffffffffffffffffffffffffffffffffffffff021916908373ffffffffffffffffffffffffffffffffffffffff1602179055506200069a6040805190810160405280600b81526020017f6574685f6d61696e6e657400000000000000000000000000000000000000000081525062000b1d640100000000026401000000009004565b6001905062000b1a565b6000620006d473c03a2615d5efaf5f49f60b7bb6583eaec212fdf162000591640100000000026401000000009004565b1115620007895773c03a2615d5efaf5f49f60b7bb6583eaec212fdf1600160006101000a81548173ffffffffffffffffffffffffffffffffffffffff021916908373ffffffffffffffffffffffffffffffffffffffff1602179055506200077f6040805190810160405280600c81526020017f6574685f726f707374656e33000000000000000000000000000000000000000081525062000b1d640100000000026401000000009004565b6001905062000b1a565b6000620007b973b7a07bcf2ba2f2703b24c0691b5278999c59ac7e62000591640100000000026401000000009004565b11156200086e5773b7a07bcf2ba2f2703b24c0691b5278999c59ac7e600160006101000a81548173ffffffffffffffffffffffffffffffffffffffff021916908373ffffffffffffffffffffffffffffffffffffffff160217905550620008646040805190810160405280600981526020017f6574685f6b6f76616e000000000000000000000000000000000000000000000081525062000b1d640100000000026401000000009004565b6001905062000b1a565b60006200089e73146500cfd35b22e4a392fe0adc06de1a1368ed4862000591640100000000026401000000009004565b1115620009535773146500cfd35b22e4a392fe0adc06de1a1368ed48600160006101000a81548173ffffffffffffffffffffffffffffffffffffffff021916908373ffffffffffffffffffffffffffffffffffffffff160217905550620009496040805190810160405280600b81526020017f6574685f72696e6b65627900000000000000000000000000000000000000000081525062000b1d640100000000026401000000009004565b6001905062000b1a565b600062000983736f485c8bf6fc43ea212e93bbf8ce046c7f1cb47562000591640100000000026401000000009004565b1115620009e957736f485c8bf6fc43ea212e93bbf8ce046c7f1cb475600160006101000a81548173ffffffffffffffffffffffffffffffffffffffff021916908373ffffffffffffffffffffffffffffffffffffffff1602179055506001905062000b1a565b600062000a197320e12a1f859b3feae5fb2a0a32c18f5a65555bbf62000591640100000000026401000000009004565b111562000a7f577320e12a1f859b3feae5fb2a0a32c18f5a65555bbf600160006101000a81548173ffffffffffffffffffffffffffffffffffffffff021916908373ffffffffffffffffffffffffffffffffffffffff1602179055506001905062000b1a565b600062000aaf7351efaf4c8b3c9afbd5ab9f4bbc82784ab6ef8faa62000591640100000000026401000000009004565b111562000b15577351efaf4c8b3c9afbd5ab9f4bbc82784ab6ef8faa600160006101000a81548173ffffffffffffffffffffffffffffffffffffffff021916908373ffffffffffffffffffffffffffffffffffffffff1602179055506001905062000b1a565b600090505b90565b806003908051906020019062000b3592919062000b39565b5050565b828054600181600116156101000203166002900490600052602060002090601f016020900481019282601f1062000b7c57805160ff191683800117855562000bad565b8280016001018555821562000bad579182015b8281111562000bac57825182559160200191906001019062000b8f565b5b50905062000bbc919062000bc0565b5090565b62000be591905b8082111562000be157600081600090555060010162000bc7565b5090565b90565b6127ed8062000bf86000396000f3006080604052600436106100db576000357c0100000000000000000000000000000000000000000000000000000000900463ffffffff16806312065fe0146100ed57806327dc297e146101185780632d0000e11461018f57806338bbfa50146102395780633f4ba83a146102f65780635c975abb1461030d5780637e963bd51461033c57806383197ef0146103e65780638456cb59146103fd5780638da5cb5b14610414578063aafe8a1a1461046b578063cf2e291414610515578063f2fde38b146105f7578063f5074f411461063a578063fae571ca1461067d575b3480156100e757600080fd5b50600080fd5b3480156100f957600080fd5b506101026106d9565b6040518082815260200191505060405180910390f35b34801561012457600080fd5b5061018d6004803603810190808035600019169060200190929190803590602001908201803590602001908080601f01602080910402602001604051908101604052809392919081815260200183838082843782019150505050505091929192905050506106f8565b005b34801561019b57600080fd5b506101be600480360381019080803560001916906020019092919050505061073b565b6040518080602001828103825283818151815260200191508051906020019080838360005b838110156101fe5780820151818401526020810190506101e3565b50505050905090810190601f16801561022b5780820380516001836020036101000a031916815260200191505b509250505060405180910390f35b34801561024557600080fd5b506102f46004803603810190808035600019169060200190929190803590602001908201803590602001908080601f0160208091040260200160405190810160405280939291908181526020018383808284378201915050505050509192919290803590602001908201803590602001908080601f01602080910402602001604051908101604052809392919081815260200183838082843782019150505050505091929192905050506107eb565b005b34801561030257600080fd5b5061030b610ad3565b005b34801561031957600080fd5b50610322610b91565b604051808215151515815260200191505060405180910390f35b34801561034857600080fd5b5061036b6004803603810190808035600019169060200190929190505050610ba4565b6040518080602001828103825283818151815260200191508051906020019080838360005b838110156103ab578082015181840152602081019050610390565b50505050905090810190601f1680156103d85780820380516001836020036101000a031916815260200191505b509250505060405180910390f35b3480156103f257600080fd5b506103fb610c61565b005b34801561040957600080fd5b50610412610cf6565b005b34801561042057600080fd5b50610429610db6565b604051808273ffffffffffffffffffffffffffffffffffffffff1673ffffffffffffffffffffffffffffffffffffffff16815260200191505060405180910390f35b34801561047757600080fd5b5061049a6004803603810190808035600019169060200190929190505050610ddb565b6040518080602001828103825283818151815260200191508051906020019080838360005b838110156104da5780820151818401526020810190506104bf565b50505050905090810190601f1680156105075780820380516001836020036101000a031916815260200191505b509250505060405180910390f35b34801561052157600080fd5b5061057c600480360381019080803590602001908201803590602001908080601f0160208091040260200160405190810160405280939291908181526020018383808284378201915050505050509192919290505050610e8b565b6040518080602001828103825283818151815260200191508051906020019080838360005b838110156105bc5780820151818401526020810190506105a1565b50505050905090810190601f1680156105e95780820380516001836020036101000a031916815260200191505b509250505060405180910390f35b34801561060357600080fd5b50610638600480360381019080803573ffffffffffffffffffffffffffffffffffffffff16906020019092919050505061101c565b005b34801561064657600080fd5b5061067b600480360381019080803573ffffffffffffffffffffffffffffffffffffffff169060200190929190505050611171565b005b6106d7600480360381019080803590602001908201803590602001908080601f01602080910402602001604051908101604052809392919081815260200183838082843782019150505050505091929192905050506111e5565b005b60003073ffffffffffffffffffffffffffffffffffffffff1631905090565b610737828260006040519080825280601f01601f1916602001820160405280156107315781602001602082028038833980820191505090505b506107eb565b5050565b60086020528060005260406000206000915090508054600181600116156101000203166002900480601f0160208091040260200160405190810160405280929190818152602001828054600181600116156101000203166002900480156107e35780601f106107b8576101008083540402835291602001916107e3565b820191906000526020600020905b8154815290600101906020018083116107c657829003601f168201915b505050505081565b60008060149054906101000a900460ff1615151561080857600080fd5b6108c46008600086600019166000191681526020019081526020016000208054600181600116156101000203166002900480601f0160208091040260200160405190810160405280929190818152602001828054600181600116156101000203166002900480156108ba5780601f1061088f576101008083540402835291602001916108ba565b820191906000526020600020905b81548152906001019060200180831161089d57829003601f168201915b505050505061154f565b15156108cf57600080fd5b6108d7611574565b73ffffffffffffffffffffffffffffffffffffffff163373ffffffffffffffffffffffffffffffffffffffff1614151561091057600080fd5b60086000856000191660001916815260200190815260200160002060405160200180828054600181600116156101000203166002900480156109895780601f10610967576101008083540402835291820191610989565b820191906000526020600020905b815481529060010190602001808311610975575b50509150506040516020818303038152906040526040518082805190602001908083835b6020831015156109d257805182526020820191506020810190506020830392506109ad565b6001836020036101000a03801982511681845116808217855250505050505090500191505060405180910390209050826007600083600019166000191681526020019081526020016000209080519060200190610a3092919061271c565b507fc0bf91854366db107ab987d2b1251910a349342c304fbb5b900a1ea5ef359af8836040518080602001828103825283818151815260200191508051906020019080838360005b83811015610a93578082015181840152602081019050610a78565b50505050905090810190601f168015610ac05780820380516001836020036101000a031916815260200191505b509250505060405180910390a150505050565b6000809054906101000a900473ffffffffffffffffffffffffffffffffffffffff1673ffffffffffffffffffffffffffffffffffffffff163373ffffffffffffffffffffffffffffffffffffffff16141515610b2e57600080fd5b600060149054906101000a900460ff161515610b4957600080fd5b60008060146101000a81548160ff0219169083151502179055507f7805862f689e2f13df9f062ff482ad3ad112aca9e0847911ed832e158c525b3360405160405180910390a1565b600060149054906101000a900460ff1681565b60606008600083600019166000191681526020019081526020016000208054600181600116156101000203166002900480601f016020809104026020016040519081016040528092919081815260200182805460018160011615610100020316600290048015610c555780601f10610c2a57610100808354040283529160200191610c55565b820191906000526020600020905b815481529060010190602001808311610c3857829003601f168201915b50505050509050919050565b6000809054906101000a900473ffffffffffffffffffffffffffffffffffffffff1673ffffffffffffffffffffffffffffffffffffffff163373ffffffffffffffffffffffffffffffffffffffff16141515610cbc57600080fd5b6000809054906101000a900473ffffffffffffffffffffffffffffffffffffffff1673ffffffffffffffffffffffffffffffffffffffff16ff5b6000809054906101000a900473ffffffffffffffffffffffffffffffffffffffff1673ffffffffffffffffffffffffffffffffffffffff163373ffffffffffffffffffffffffffffffffffffffff16141515610d5157600080fd5b600060149054906101000a900460ff16151515610d6d57600080fd5b6001600060146101000a81548160ff0219169083151502179055507f6985a02210a168e66602d3235cb6db0e70f92b3ba4d376a33c0f3d9434bff62560405160405180910390a1565b6000809054906101000a900473ffffffffffffffffffffffffffffffffffffffff1681565b60076020528060005260406000206000915090508054600181600116156101000203166002900480601f016020809104026020016040519081016040528092919081815260200182805460018160011615610100020316600290048015610e835780601f10610e5857610100808354040283529160200191610e83565b820191906000526020600020905b815481529060010190602001808311610e6657829003601f168201915b505050505081565b60606000826040516020018082805190602001908083835b602083101515610ec85780518252602082019150602081019050602083039250610ea3565b6001836020036101000a0380198251168184511680821785525050505050509050019150506040516020818303038152906040526040518082805190602001908083835b602083101515610f315780518252602082019150602081019050602083039250610f0c565b6001836020036101000a038019825116818451168082178552505050505050905001915050604051809103902090506007600082600019166000191681526020019081526020016000208054600181600116156101000203166002900480601f01602080910402602001604051908101604052809291908181526020018280546001816001161561010002031660029004801561100f5780601f10610fe45761010080835404028352916020019161100f565b820191906000526020600020905b815481529060010190602001808311610ff257829003601f168201915b5050505050915050919050565b6000809054906101000a900473ffffffffffffffffffffffffffffffffffffffff1673ffffffffffffffffffffffffffffffffffffffff163373ffffffffffffffffffffffffffffffffffffffff1614151561107757600080fd5b600073ffffffffffffffffffffffffffffffffffffffff168173ffffffffffffffffffffffffffffffffffffffff16141515156110b357600080fd5b8073ffffffffffffffffffffffffffffffffffffffff166000809054906101000a900473ffffffffffffffffffffffffffffffffffffffff1673ffffffffffffffffffffffffffffffffffffffff167f8be0079c531659141344cd1fd0a4f28419497f9722a3daafe3b4186f6b6457e060405160405180910390a3806000806101000a81548173ffffffffffffffffffffffffffffffffffffffff021916908373ffffffffffffffffffffffffffffffffffffffff16021790555050565b6000809054906101000a900473ffffffffffffffffffffffffffffffffffffffff1673ffffffffffffffffffffffffffffffffffffffff163373ffffffffffffffffffffffffffffffffffffffff161415156111cc57600080fd5b8073ffffffffffffffffffffffffffffffffffffffff16ff5b606060008060149054906101000a900460ff1615151561120457600080fd5b3073ffffffffffffffffffffffffffffffffffffffff163161125a6040805190810160405280600381526020017f55524c00000000000000000000000000000000000000000000000000000000008152506118d6565b1115611319577ffee95ecae0c8f7f0743ec0ad254c78ab75e5ecca9f1ddcd9f11f9a98124b96bc60405180806020018281038252604b8152602001807f4f7261636c697a6520717565727920776173204e4f542073656e742c20706c6581526020017f6173652061646420736f6d652045544820746f20636f76657220666f7220746881526020017f652071756572792066656500000000000000000000000000000000000000000081525060600191505060405180910390a161154a565b7ffee95ecae0c8f7f0743ec0ad254c78ab75e5ecca9f1ddcd9f11f9a98124b96bc6040518080602001828103825260358152602001807f4f7261636c697a65207175657279207761732073656e742c207374616e64696e81526020017f6720627920666f722074686520616e737765722e2e000000000000000000000081525060400191505060405180910390a18260405160200180807f68746d6c2868747470733a2f2f747769747465722e636f6d2f0000000000000081525060190182805190602001908083835b60208310151561140857805182526020820191506020810190506020830392506113e3565b6001836020036101000a038019825116818451168082178552505050505050905001807f292e7870617468282f2f6469765b636f6e7461696e732840636c6173732c202781526020017f7065726d616c696e6b2d74776565742d636f6e7461696e657227295d2f2f705b81526020017f636f6e7461696e732840636c6173732c202774776565742d7465787427295d2f81526020017f2f7465787428292900000000000000000000000000000000000000000000000081525060680191505060405160208183030381529060405291506115176040805190810160405280600381526020017f55524c000000000000000000000000000000000000000000000000000000000081525083611caa565b905082600860008360001916600019168152602001908152602001600020908051906020019061154892919061271c565b505b505050565b60006060829050600081511415611569576000915061156e565b600191505b50919050565b600080600160009054906101000a900473ffffffffffffffffffffffffffffffffffffffff1673ffffffffffffffffffffffffffffffffffffffff1614806115e6575060006115e4600160009054906101000a900473ffffffffffffffffffffffffffffffffffffffff16612250565b145b156115f7576115f5600061225b565b505b600160009054906101000a900473ffffffffffffffffffffffffffffffffffffffff1673ffffffffffffffffffffffffffffffffffffffff166338cc48316040518163ffffffff167c0100000000000000000000000000000000000000000000000000000000028152600401602060405180830381600087803b15801561167d57600080fd5b505af1158015611691573d6000803e3d6000fd5b505050506040513d60208110156116a757600080fd5b810190808051906020019092919050505073ffffffffffffffffffffffffffffffffffffffff16600260009054906101000a900473ffffffffffffffffffffffffffffffffffffffff1673ffffffffffffffffffffffffffffffffffffffff1614151561181057600160009054906101000a900473ffffffffffffffffffffffffffffffffffffffff1673ffffffffffffffffffffffffffffffffffffffff166338cc48316040518163ffffffff167c0100000000000000000000000000000000000000000000000000000000028152600401602060405180830381600087803b15801561179457600080fd5b505af11580156117a8573d6000803e3d6000fd5b505050506040513d60208110156117be57600080fd5b8101908080519060200190929190505050600260006101000a81548173ffffffffffffffffffffffffffffffffffffffff021916908373ffffffffffffffffffffffffffffffffffffffff1602179055505b600260009054906101000a900473ffffffffffffffffffffffffffffffffffffffff1673ffffffffffffffffffffffffffffffffffffffff1663c281d19e6040518163ffffffff167c0100000000000000000000000000000000000000000000000000000000028152600401602060405180830381600087803b15801561189657600080fd5b505af11580156118aa573d6000803e3d6000fd5b505050506040513d60208110156118c057600080fd5b8101908080519060200190929190505050905090565b600080600160009054906101000a900473ffffffffffffffffffffffffffffffffffffffff1673ffffffffffffffffffffffffffffffffffffffff16148061194857506000611946600160009054906101000a900473ffffffffffffffffffffffffffffffffffffffff16612250565b145b1561195957611957600061225b565b505b600160009054906101000a900473ffffffffffffffffffffffffffffffffffffffff1673ffffffffffffffffffffffffffffffffffffffff166338cc48316040518163ffffffff167c0100000000000000000000000000000000000000000000000000000000028152600401602060405180830381600087803b1580156119df57600080fd5b505af11580156119f3573d6000803e3d6000fd5b505050506040513d6020811015611a0957600080fd5b810190808051906020019092919050505073ffffffffffffffffffffffffffffffffffffffff16600260009054906101000a900473ffffffffffffffffffffffffffffffffffffffff1673ffffffffffffffffffffffffffffffffffffffff16141515611b7257600160009054906101000a900473ffffffffffffffffffffffffffffffffffffffff1673ffffffffffffffffffffffffffffffffffffffff166338cc48316040518163ffffffff167c0100000000000000000000000000000000000000000000000000000000028152600401602060405180830381600087803b158015611af657600080fd5b505af1158015611b0a573d6000803e3d6000fd5b505050506040513d6020811015611b2057600080fd5b8101908080519060200190929190505050600260006101000a81548173ffffffffffffffffffffffffffffffffffffffff021916908373ffffffffffffffffffffffffffffffffffffffff1602179055505b600260009054906101000a900473ffffffffffffffffffffffffffffffffffffffff1673ffffffffffffffffffffffffffffffffffffffff1663524f3889836040518263ffffffff167c01000000000000000000000000000000000000000000000000000000000281526004018080602001828103825283818151815260200191508051906020019080838360005b83811015611c1c578082015181840152602081019050611c01565b50505050905090810190601f168015611c495780820380516001836020036101000a031916815260200191505b5092505050602060405180830381600087803b158015611c6857600080fd5b505af1158015611c7c573d6000803e3d6000fd5b505050506040513d6020811015611c9257600080fd5b81019080805190602001909291905050509050919050565b6000806000600160009054906101000a900473ffffffffffffffffffffffffffffffffffffffff1673ffffffffffffffffffffffffffffffffffffffff161480611d1e57506000611d1c600160009054906101000a900473ffffffffffffffffffffffffffffffffffffffff16612250565b145b15611d2f57611d2d600061225b565b505b600160009054906101000a900473ffffffffffffffffffffffffffffffffffffffff1673ffffffffffffffffffffffffffffffffffffffff166338cc48316040518163ffffffff167c0100000000000000000000000000000000000000000000000000000000028152600401602060405180830381600087803b158015611db557600080fd5b505af1158015611dc9573d6000803e3d6000fd5b505050506040513d6020811015611ddf57600080fd5b810190808051906020019092919050505073ffffffffffffffffffffffffffffffffffffffff16600260009054906101000a900473ffffffffffffffffffffffffffffffffffffffff1673ffffffffffffffffffffffffffffffffffffffff16141515611f4857600160009054906101000a900473ffffffffffffffffffffffffffffffffffffffff1673ffffffffffffffffffffffffffffffffffffffff166338cc48316040518163ffffffff167c0100000000000000000000000000000000000000000000000000000000028152600401602060405180830381600087803b158015611ecc57600080fd5b505af1158015611ee0573d6000803e3d6000fd5b505050506040513d6020811015611ef657600080fd5b8101908080519060200190929190505050600260006101000a81548173ffffffffffffffffffffffffffffffffffffffff021916908373ffffffffffffffffffffffffffffffffffffffff1602179055505b600260009054906101000a900473ffffffffffffffffffffffffffffffffffffffff1673ffffffffffffffffffffffffffffffffffffffff1663524f3889856040518263ffffffff167c01000000000000000000000000000000000000000000000000000000000281526004018080602001828103825283818151815260200191508051906020019080838360005b83811015611ff2578082015181840152602081019050611fd7565b50505050905090810190601f16801561201f5780820380516001836020036101000a031916815260200191505b5092505050602060405180830381600087803b15801561203e57600080fd5b505af1158015612052573d6000803e3d6000fd5b505050506040513d602081101561206857600080fd5b8101908080519060200190929190505050905062030d403a02670de0b6b3a76400000181111561209e5760006001029150612249565b600260009054906101000a900473ffffffffffffffffffffffffffffffffffffffff1673ffffffffffffffffffffffffffffffffffffffff1663adf59f9982600087876040518563ffffffff167c0100000000000000000000000000000000000000000000000000000000028152600401808481526020018060200180602001838103835285818151815260200191508051906020019080838360005b8381101561215657808201518184015260208101905061213b565b50505050905090810190601f1680156121835780820380516001836020036101000a031916815260200191505b50838103825284818151815260200191508051906020019080838360005b838110156121bc5780820151818401526020810190506121a1565b50505050905090810190601f1680156121e95780820380516001836020036101000a031916815260200191505b50955050505050506020604051808303818588803b15801561220a57600080fd5b505af115801561221e573d6000803e3d6000fd5b50505050506040513d602081101561223557600080fd5b810190808051906020019092919050505091505b5092915050565b6000813b9050919050565b600061226561226c565b9050919050565b60008061228c731d3b2638a7cc9f2cb3d298a3da7a90b67e5506ed612250565b111561232e57731d3b2638a7cc9f2cb3d298a3da7a90b67e5506ed600160006101000a81548173ffffffffffffffffffffffffffffffffffffffff021916908373ffffffffffffffffffffffffffffffffffffffff1602179055506123256040805190810160405280600b81526020017f6574685f6d61696e6e6574000000000000000000000000000000000000000000815250612702565b600190506126ff565b600061234d73c03a2615d5efaf5f49f60b7bb6583eaec212fdf1612250565b11156123ef5773c03a2615d5efaf5f49f60b7bb6583eaec212fdf1600160006101000a81548173ffffffffffffffffffffffffffffffffffffffff021916908373ffffffffffffffffffffffffffffffffffffffff1602179055506123e66040805190810160405280600c81526020017f6574685f726f707374656e330000000000000000000000000000000000000000815250612702565b600190506126ff565b600061240e73b7a07bcf2ba2f2703b24c0691b5278999c59ac7e612250565b11156124b05773b7a07bcf2ba2f2703b24c0691b5278999c59ac7e600160006101000a81548173ffffffffffffffffffffffffffffffffffffffff021916908373ffffffffffffffffffffffffffffffffffffffff1602179055506124a76040805190810160405280600981526020017f6574685f6b6f76616e0000000000000000000000000000000000000000000000815250612702565b600190506126ff565b60006124cf73146500cfd35b22e4a392fe0adc06de1a1368ed48612250565b11156125715773146500cfd35b22e4a392fe0adc06de1a1368ed48600160006101000a81548173ffffffffffffffffffffffffffffffffffffffff021916908373ffffffffffffffffffffffffffffffffffffffff1602179055506125686040805190810160405280600b81526020017f6574685f72696e6b656279000000000000000000000000000000000000000000815250612702565b600190506126ff565b6000612590736f485c8bf6fc43ea212e93bbf8ce046c7f1cb475612250565b11156125f457736f485c8bf6fc43ea212e93bbf8ce046c7f1cb475600160006101000a81548173ffffffffffffffffffffffffffffffffffffffff021916908373ffffffffffffffffffffffffffffffffffffffff160217905550600190506126ff565b60006126137320e12a1f859b3feae5fb2a0a32c18f5a65555bbf612250565b1115612677577320e12a1f859b3feae5fb2a0a32c18f5a65555bbf600160006101000a81548173ffffffffffffffffffffffffffffffffffffffff021916908373ffffffffffffffffffffffffffffffffffffffff160217905550600190506126ff565b60006126967351efaf4c8b3c9afbd5ab9f4bbc82784ab6ef8faa612250565b11156126fa577351efaf4c8b3c9afbd5ab9f4bbc82784ab6ef8faa600160006101000a81548173ffffffffffffffffffffffffffffffffffffffff021916908373ffffffffffffffffffffffffffffffffffffffff160217905550600190506126ff565b600090505b90565b806003908051906020019061271892919061271c565b5050565b828054600181600116156101000203166002900490600052602060002090601f016020900481019282601f1061275d57805160ff191683800117855561278b565b8280016001018555821561278b579182015b8281111561278a57825182559160200191906001019061276f565b5b509050612798919061279c565b5090565b6127be91905b808211156127ba5760008160009055506001016127a2565b5090565b905600a165627a7a72305820d0230681ffbf7b4bf7a17b0c3bbe92c8da73b411693f5ef614182b905960ecbe0029",
  "source": "pragma solidity ^0.4.23;\r\nimport \"installed_contracts/oraclize-api/contracts/usingOraclize.sol\";\r\nimport \"installed_contracts/zeppelin/contracts/ownership/Ownable.sol\";\r\nimport \"installed_contracts/zeppelin/contracts/lifecycle/Pausable.sol\";\r\nimport \"installed_contracts/zeppelin/contracts/lifecycle/Destructible.sol\";\r\n\r\ncontract TwitterOracle is Ownable, Pausable, Destructible, usingOraclize {\r\n\r\n\r\n    address owner;\r\n    mapping(bytes32 => string) public tweetTexts;\r\n    mapping(bytes32 => string) public queryToPost;\r\n\r\n    event LogInfo(string description);\r\n    event LogTextUpdate(string text);\r\n    event LogUpdate(address indexed _owner, uint indexed _balance);\r\n\r\n    // Constructor\r\n    constructor()\r\n    payable\r\n    public\r\n    {\r\n        owner = msg.sender;\r\n\r\n        emit LogUpdate(owner, address(this).balance);\r\n\r\n        // Replace the next line with your version:\r\n        OAR = OraclizeAddrResolverI(0x6f485C8BF6fc43eA212E93BBF8ce046C7f1cb475);\r\n\r\n        oraclize_setProof(proofType_TLSNotary | proofStorage_IPFS);\r\n    }\r\n\r\n    // Fallback function\r\n    function()\r\n    public\r\n    {\r\n        revert();\r\n    }\r\n\r\n    function stringNotEmpty(string s)\r\n    internal\r\n    pure\r\n    returns(bool)\r\n    {\r\n        bytes memory tempString = bytes(s);\r\n        if (tempString.length == 0) {\r\n            return false;\r\n        } else {\r\n            return true;\r\n        }\r\n    }\r\n\r\n    function __callback(bytes32 id, string result, bytes proof)\r\n    public\r\n    whenNotPaused\r\n    {\r\n        require(stringNotEmpty(queryToPost[id]));\r\n        require(msg.sender == oraclize_cbAddress());\r\n\r\n        bytes32 postHash = keccak256(abi.encodePacked(queryToPost[id]));\r\n\r\n        tweetTexts[postHash] = result;\r\n\r\n        emit LogTextUpdate(result);\r\n    }\r\n\r\n    function getBalance()\r\n    public\r\n    view\r\n    returns (uint _balance)\r\n    {\r\n        return address(this).balance;\r\n    }\r\n\r\n    function oraclizeTweet(string _postId)\r\n    payable\r\n    public \r\n    whenNotPaused\r\n    {\r\n        // Check if we have enough remaining funds\r\n        if (oraclize_getPrice(\"URL\") > address(this).balance) {\r\n            emit LogInfo(\"Oraclize query was NOT sent, please add some ETH to cover for the query fee\");\r\n        } else {\r\n            emit LogInfo(\"Oraclize query was sent, standing by for the answer..\");\r\n            // Using XPath to to fetch the right element in the JSON response\r\n            string memory query = string(abi.encodePacked(\"html(https://twitter.com/\", _postId, \").xpath(//div[contains(@class, 'permalink-tweet-container')]//p[contains(@class, 'tweet-text')]//text())\"));\r\n\r\n            \r\n            bytes32 queryId = oraclize_query(\"URL\", query);\r\n            queryToPost[queryId] = _postId;\r\n        }\r\n    }\r\n\r\n    function getTweetText(string _postId)\r\n    public\r\n    view\r\n    returns(string)\r\n    {\r\n        bytes32 postHash = keccak256(abi.encodePacked(_postId));\r\n        return tweetTexts[postHash];\r\n    }\r\n\r\n    function getPostId(bytes32 _queryId)\r\n    public\r\n    view\r\n    returns(string)\r\n    {\r\n        return queryToPost[_queryId];\r\n    }\r\n\r\n}",
  "sourcePath": "C:\\Users\\shtabriz\\Documents\\GitHub\\ConsenSys-Academy-2018-Developer-Program-Final-Project\\birdbounty\\contracts\\TwitterOracle.sol",
  "compiler": {
    "name": "solc",
    "version": "0.4.24+commit.e67f0147.Emscripten.clang"
  },
  "schemaVersion": "2.0.1",
  "updatedAt": "2018-08-13T23:46:15.143Z"
}